:020000040800F2
:100000000050002015100108C110010801D500089A
:10001000C1100108C1100108C11001080000000052
:10002000000000000000000000000000C1100108F6
:10003000C110010800000000C1100108F1D400083F
:10004000C1100108C1100108C1100108C110010848
:10005000C1100108C1100108C110010839D40008FD
:10006000C1100108C1100108C1100108C110010828
:10007000C1100108C1100108FDD30008C11001081A
:100080003DD40008C1100108C1100108C1100108C9
:10009000C1100108C1100108C110010835D40008C1
:1000A000C1100108C1100108C110010849D300089E
:1000B00041D3000835D3000829D3000879D40008BB
:1000C00071D4000875D400086DD40008C11001086F
:1000D000C1100108C1D3000855D30008C1100108A0
:1000E0007DD40008C1100108C11001080000000003
:1000F0000000000000000000000000000000000000
:0C01000000000000000000005FF808F1A3
:100110002DE9F04F744B754DA1B02B6000236B603F
:100120000BF081F818B907F0BBFB0BF09FF80BF050
:10013000D5FD00230A936E4C0B930C934FF4E01300
:100140000D9323686B4943F480338A7B2360A36952
:1001500043F01003A361236803F400330B930A9B5D
:1001600001330A930B9B1BB90A9BB3F5A06FF2D125
:1001700021685F4B11F4003101D0022315E01868AB
:1001800040F0010018600A91236803F002030B930A
:100190000A9B01330A930B9B1BB90A9BB3F5A06F13
:1001A000F2D12368990739D501230C93524B534F51
:1001B000196841F010011960196821F003011960F4
:1001C000196841F0020119606368636063686360E5
:1001D000636843F480636360494B1968043B21F012
:1001E0007041596047493960616821F47C11616050
:1001F000596841F000415960D96821F40041D96043
:100200009B681B0449BF404B4FF4E0133B604FF425
:1002100080130D930C9B012B01D117E0FEE7022BFD
:1002200018D16AB10D9BB3F5801F02D14FF4A01312
:1002300005E00D9BB3F5E01F02D14FF400130D93C1
:1002400062680D9B134343F4803302E0636843F418
:1002500060136360236843F0807323602268244B3B
:100260009601FBD55A6822F003025A605A6842F0A0
:1002700002025A6063681E4A03F00C03082B0893BD
:10028000F8D15168214B01F00C01042903D0082951
:1002900004D01C4A00E03A681A6011E051685068C6
:1002A000C1F38341C00301F1020101D4184A05E002
:1002B000526812F4003F3A6818BF5208514319605F
:1002C0006268DFF85080C2F303123A4492F804B037
:1002D0001A6822FA0BFB0B4AC3F800B03B68934242
:1002E0001AD101231CE000BFDF240008080700200A
:1002F00000100240181E00200020024014000020C0
:100300000410014000127A00001BB700A400002076
:1003100000093D00B72500209D4A934202D10223E7
:1003200088F800309B4B9C4A20AEDA60A269DFF867
:10033000949242F00102A261626A4FF0000A42F018
:1003400080726262A269954842F01C02A2614FF677
:10035000FF7226F82C2D314603938DF856A002F03B
:10036000F1FD4846314602F0EDFD8D48314602F080
:10037000E9FD8C4A3046516841F00071516005F04A
:1003800073FE159A8849039BB2FBF1F24FF47A7120
:10039000AA60BBFBF1FB854A0BF1FF315160F021F4
:1003A00083F823100723C2F808A06420136008F024
:1003B000CAFA7F4B0FCB86E80F00A369159843F06C
:1003C0000803A361A36916A943F00803A3610823E6
:1003D000C9F810301023C9F8103002F0B3FD179897
:1003E00018A902F0AFFD98F800304FF48052012BAD
:1003F0008CBF102314238DF856304FF002038DF874
:100400005730A369ADF8542043F00403A3618CBFB7
:100410004FF00109D1466148314602F093FD654B2A
:10042000B9F1000F01D0644A00E0644A00201A606C
:1004300002F022F8624B93E80300A36986E8030008
:1004400043F0080316A9A361159802F07BFD0BF099
:10045000EFFB9F238DF84030322000238DF8413090
:100460008DF842308DF8433008F06DFA554B4FF45B
:1004700080525A61A3F5544310AA9B8905204FF47A
:100480007A7331469146013824D01AB192F800E0CF
:10049000013208E04FF0FF0E05E003F1FF3C1FFAC8
:1004A0008CFC93B16346DFF82CC1BCF808A01AF0AD
:1004B000020FF2D0ACF80CE0DFF818E1BEF808C08B
:1004C0001CF0010F00F0798180E1AB899BB2013310
:1004D0009BB2AB81DFF8ECA04FF4805BCAF810B0A0
:1004E0009DF856209DF85530120242EA03429DF8CD
:1004F00057301A43344B9A4212D0CAF814B0F52040
:100500000CF026F9FF200CF023F97028CAF810B07F
:1005100006D198F80030022B02D12C4B03221A701E
:1005200098F800A0BAF1030F02D001200AF0CEFF24
:100530002749DFF8A480D1F808B008F10E000BF4C9
:100540000063069310231A460021039310F0CDFC9C
:10055000039B0021ADF84030042302228DF84310A4
:10056000AB73072101231BF4004F8DF842202B743D
:10057000697433D0122088F8123088F8133088F864
:10058000143088F81510ADF84000904627E000BF01
:10059000001BB70000ED00E00005FA05000801406F
:1005A000001001400000014040420F0010E000E058
:1005B00018370108BC250020F11E0008051F00089F
:1005C00028370108000C014015202000B725002025
:1005D000181E002000380040080700209846BAF195
:1005E000010F11D9BDF84030012243F02003ADF8CE
:1005F00040300523AB752A7608F10103072285F800
:1006000017806A765FFA83F88348494607F02AFE26
:10061000069B93B1022381484946ADF8403007F06C
:1006200021FE09230122AB762A7708F10103072274
:1006300085F81B806A775FFA83F86369784843F02E
:1006400001036361A369764D43F40073A36105F070
:1006500093FC744B00241593734BB8F1010F169360
:100660000CBF234680231A934FF480731B934FF4DF
:1006700080631C93202331461D9328464FF400537A
:100680001E931794CDF8608019941F9405F056FCC2
:100690002B68B8F1010F43F001032B60634B98BF47
:1006A00000215A6888BF012122F4702222F480724E
:1006B00042EA01225A6099685D4A20460A4042F4A3
:1006C000602242F002029A60D96A08F1FF3221F4F6
:1006D0007001D2B241EA0252DA620123554A11187E
:1006E0008C78002C51D0825C5C1C092ACE78E4B254
:1006F0004E4910D9A2F10A0505EB45054FF0070E4A
:100700000EFA05FEAE40D1F80CC02CEA0E0E4EEAF1
:100710000605CD600DE002EB42054FF0070E0EFA24
:1007200005FEAE40D1F810C02CEA0E0E4EEA0605CA
:100730000D61062B3D490CD8013B03EB83031F25BC
:100740009D409A404E6B26EA050545EA02034B633D
:100750001CE00C2B0CD8073B03EB83031F259D40AB
:100760009A400E6B26EA050545EA02030B630DE08D
:100770000D3B03EB83031F259D409A40CE6A26EA7A
:10078000050545EA0203CB6200E01C460430102850
:1007900001D02346A2E7254B9A6842F480729A6002
:1007A0009A6842F001029A609A6842F008029A60E0
:1007B00099681E4A090714D5FAE703F1FF3E1FFAAC
:1007C0008EFE002B3FF481AE734675E6BEF80CE05A
:1007D0001FFA8EFE00293FF456AE81F800E0013189
:1007E00051E6936843F004039360104A936813F052
:1007F0000403FAD1916841F4A00191600E4AB2F865
:10080000E600E0B9B2F9E830C3B9B2F9EA30D3F1A1
:10081000010338BF002312E000080140000C014032
:10082000080002404C24014026070020002401401B
:10083000FDF7F1FF16070020181E0020034613F0F5
:10084000010340F08E803B7500B20CF0C1FFB6A3EF
:10085000D3E900230DF022F80DF07AFAB4490646E8
:10086000B1F9E8000CF0B4FFAFA3D3E900230DF019
:1008700015F80DF06DFAAE4A0546B2F9EA000CF033
:10088000A7FFA9A3D3E900230DF008F80DF060FA43
:100890000446304610F0B0FD0746304610F04EFEDC
:1008A0008046284610F0A8FD0646284610F046FE71
:1008B0000546204610F0A0FD8246204610F03EFE80
:1008C0003946814650460DF0A1FB394683464846DD
:1008D0000DF09CFB5146069040460DF097FB4946B3
:1008E000079040460DF092FB3146099050460DF0BE
:1008F0008DFB904C4946A06206F100400DF086FB4E
:100900002946E062256307980DF080FB01460698B2
:100910000DF074FA2946606309980DF077FB0146E3
:1009200058460DF069FA3146A06308F100400DF019
:100930006DFB2946E06358460DF068FB01460998B7
:100940000DF05AFA2946206406980DF05FFB014627
:1009500007980DF053FA3946606430460DF056FBA7
:10096000A06473498B689B0363D5142007F0EBFFE9
:10097000AE2008F086FEA42008F083FE322007F0A7
:10098000E2FF202008F07DFE022008F07AFEA12080
:1009900008F077FEC82008F074FEA62008F071FE6B
:1009A000812008F06EFEAF2008F06BFE142007F0E7
:1009B000CAFFAF2008F065FE142007F0C4FFA62090
:1009C00008F05FFEAE2008F05CFE202008F059FE23
:1009D000002008F056FEB02008F053FE402008F03A
:1009E00050FE002008F04DFE102008F04AFE4FF4A3
:1009F0008064013C0020A4B208F0D0FD002CF8D1A6
:100A0000812008F03EFEC82008F03BFE494DAF2093
:100A100008F037FE484B21460C2205F15000EB64EC
:100A200010F063FA0BF02CFD07F080FE434B0344FB
:100A3000AB654349434B09681A68B1F85AB042495B
:100A40000020087042F00E0240481A609846384A6A
:100A50003F4B0778B2F8EE9092F8ED609246354D34
:100A60000A46A3F10C01012F98BF0B46EB650592D6
:100A70000AF05AFF059A0690002800F01783354BBC
:100A80003549B9F1BB0F19603449354C59603549C6
:100A9000D96001D9012312E0B9F1610F01D9022314
:100AA0000DE0B9F1290F01D9032308E0B9F1130FC3
:100AB00001D9042303E0B9F1090F04D905236375B3
:100AC0000123137010E00623F9E7D8F8003023F073
:100AD0000203C8F80030244B1B78002B40F014812F
:100AE000002E00F00B811E46DFF88090002389F86D
:100AF00000301A46092EEED801A353F826F000BFA5
:100B0000710B0008710B0008BF0B0008750C000882
:100B1000BD0C0008D70A0008D70A0008D70A000849
:100B2000D70A0008CB0A0008399D52A246DF913F40
:100B3000181E002008070020261F0020404B4C00F4
:100B40008803002034020020A2030020B7250020E3
:100B50000C3701088C03002015C40008EBB800080E
:100B60001400002090C1793DBA2500200A0400201D
:100B7000012F28D84FF0000C20AB03F82C2D614634
:100B800053200122CDF810C00AF096FDDDF810C008
:100B9000B8B19DF85430E52B13D1864B864A06999F
:100BA0001A60864A85F860C05A6051B10423012258
:100BB00089F80030824B96421A7002D18BE7012FE0
:100BC00001D8804B00E0804BDFF82092EB650AF003
:100BD000ABFE00284ED0062115AB68200A460AF06D
:100BE0006BFD9DF857309DF859C003F001035B0081
:100BF0000CF0010C43EA8C0C9DF8553003F0010316
:100C00005CEA030C08D0BCF1010F01D100231AE00B
:100C1000BCF1020F0FD115E010AB68200C210122AE
:100C2000CDF810C00AF048FD9DF84030DDF810C046
:100C300013F00F0301D1052039E2042B02D189F80A
:100C400061C002E0012389F861305A4B5F4A1A60A3
:100C50005F4A5A6095F86120002A14BF6E226F2205
:100C60001A72574B02221A705A4B0122022E1A7026
:100C70003FF431AF012F21D8002220AB03F82C2DF7
:100C80001C200D2101220AF017FDB8B19DF8543047
:100C90002A2B01D01A2B11D1464A4F4985F86230D0
:100CA00011604E495160069A42B14A4B02221A70B5
:100CB0000322434B96421A703FF40DAF002120AB44
:100CC00003F82C1D182001220AF0F6FC00283FF43E
:100CD00002AF9DF85430FB2B7FF4FDAE354B404AFC
:100CE0001A60404A5A60069B002B3FF4F4AE344B26
:100CF00004221A70374B01221A70ECE6D8F8003043
:100D000023F00203C8F80030012F05D10BF0D6FD07
:100D1000354B4FF400525A610A2007F014FE772039
:100D2000A021012210AB0AF0C7FC10B94FF0000956
:100D300088E01E210122772008F0E6FB4FF42F60A7
:100D400007F0F6FD0026A6F160010027C9B20222D5
:100D500015AB77208DF854708DF855700AF0ACFC07
:100D60009DF855309DF8541043EA01211F4B03F1C3
:100D70006402B1520236102EE5D1B3F872E00121BF
:100D80000EF00F060EF47F4EA3F872E03A463B4693
:100D900022F001002844B0F86400002818BF0021A8
:100DA000D70703D5C0B24340082021E083EA1023CF
:100DB000FAE700BFF80300200D970008EFB900081C
:100DC000BA250020003701080C370108DDC30008F0
:100DD000ADB800080A04002011C3000853B9000888
:100DE000E9960008ABB90008001001400807002090
:100DF0001F0448BF83F4C05301384FEA4303F7D1BF
:100E00000132102AC4D146EA0E0EA5F872E000297C
:100E10008CD1C3F303339E4288D1A64B42F21072A9
:100E20001A805A80A44ADDF818905A60A34A4946AD
:100E30009A60A34ADA60A34A1A61A34A5A61002958
:100E400040F0D78095F87430A04E002B40F0D18050
:100E50009F4F0BF033FD4FF4804510A90423384613
:100E6000ADF840508DF842304FF4005802F06AF867
:100E7000984BC7F810805A6915A822F470625A611D
:100E80005A6942F400725A610823159501258DF8BC
:100E900059308DF858908DF85A5007F0A9F9282349
:100EA0008DF83C300FA80F238DF83D308DF83E3083
:100EB0008DF83F5007F068F9142007F044FD2A46EA
:100EC00010AB7720D0210AF0F7FB9DF840300322C9
:100ED000552B86F88F30A6F8982018BFC7F81480D5
:100EE00040F08280D1212A4610AB77200AF0E4FB43
:100EF0009DF84030AA2103F00F021B0986F89020CC
:100F000086F89130162215AB77200AF0D5FB9DF8B4
:100F100054209DF8553043EA0223A6F878309DF816
:100F200056209DF8573043EA0223A6F87A309DF800
:100F300058209DF8593043EA0223A6F87C309DF8EA
:100F40005A209DF85B3043EA0223A6F87E309DF8D4
:100F50005C209DF85D3043EA0223A6F880309DF8BE
:100F60005E209DF85F3043EA0223A6F882309DF8A8
:100F700060209DF8613043EA0223A6F884309DF892
:100F800062209DF8633043EA0223A6F886309DF87C
:100F900064209DF8653043EA0223A6F888309DF866
:100FA00066209DF8673043EA0223A6F88A309DF850
:100FB00068209DF8693043EA0223A6F88C303D4B47
:100FC00041F2707286F874501A8046F678125A8090
:100FD000414A06995A60414A9A60414ADA60414A58
:100FE0001A61414A5A6121B9404B1A6822F0040241
:100FF0001A603F4D95F8E2300BB13E4A137095F8F8
:10100000E3300BB13C4A137095F8E4300BB13B4A26
:101010001370364B1A68970702D5394B1B689847EF
:10102000384E0DF1800833689847002308F82C3DAE
:101030001E200A21012243460AF03EFB38B19DF8EA
:101040005430482B03D12D4B03221A7004E0274A59
:10105000136823F00803136024491C4F0B6813F036
:10106000080F1FD00FFA8BF24FF0640B92FBFBF9C5
:10107000484605920CF076FF059A03460BFB1920B3
:1010800000B203930CF06EFF1F490CF0BFFF039BEF
:10109000014618460CF0B2FE1C490CF0B7FFC7F829
:1010A0009C0035E00023C7F89C3031E0032007F0B6
:1010B00099FC00BF88020020AB96000805B8000824
:1010C000A396000815B8000845220008080700206C
:1010D0000010014000000140D596000875B80008D6
:1010E000B396000825B800089D23000834020020AC
:1010F000181E0020A20300200A040020AF250020B3
:10110000F80300208C0300208988883C00002041DF
:10111000894B10225A6108221A614FF00A09864F42
:101120001920FB6809F1FF3983F01003FB60FB68AD
:1011300083F00803FB6007F006FC012001F09CF936
:10114000192007F000FC002001F096F919F0FF09C2
:10115000E5D108233B6110233B61784BDFF8149203
:101160001B6893F90C000CF033FB6FA3D3E9002349
:101170000CF094FB0CF0ECFD10F03EF90746B9F8CA
:1011800000000CF0EFFE39460CF040FF10F06AF959
:101190006B4B6C4F1880B9F800000CF0E3FE014671
:1011A00069480CF0E7FF69490CF0E4FFC7F8A000BC
:1011B000F0680CF01FFB5CA3D3E900230CF06EFB7E
:1011C0005BA3D3E900230CF069FB0CF0C1FD604B7D
:1011D0006A7918605F4B60491A70604B01EBC2027C
:1011E00092F83120C7F8A4305D4B1A60AA689606C1
:1011F00044BF01221A605B4A5B4E136813F0080F6C
:1012000000F0FD804C4B10225A61584AB1691278A7
:101210000027012A8CBF102008208CBF4FF4804289
:101220004FF4805240EA01015148B161ADF84020CD
:101230004FF0020298BF184610A98DF843200422EF
:101240008DF8422001F07EFE322007F07CFB002169
:1012500011221E2008F058F9012160221E2008F0FA
:1012600053F9642007F06FFB40460AF07DFAB94657
:101270000A23BB46022101221E20039308F044F9F1
:10128000322007F060FB40460AF06EFABDF95410B8
:10129000BDF95600BDF958208B448842B8BF0146BD
:1012A00017449142B8BF0A4612F5805F8144039B00
:1012B00009DD214A013BD16881F01001D160D9D10B
:1012C0004FF0010801E04FF000081E20002112221B
:1012D00008F01AF90A23022101221E20039308F0C4
:1012E00013F9322007F02FFB15A80AF03DFABDF9DB
:1012F0005410BDF95600BDF95820C1EB0B0B8842C4
:10130000B8BF0146BF1A9142B8BF0A4612F5805FC6
:10131000C0EB0909039B2FDD074A013BD16881F02F
:101320001001D160D7D129E0399D52A246DF913F0B
:10133000000000A0F7C6B03E000C014044040020AD
:1013400068040020080700200AE81C4100401C46F1
:10135000400400205005002000370108281E00200E
:101360004C0500203402002000100240B725002068
:1013700000100140000000204FF00008B94B584613
:1013800003930CF0EFFD0146B7480CF0F3FE20F09C
:101390000040A06148460CF0E5FD0146B2480CF063
:1013A000E9FE20F00040E06138460CF0DBFD01462C
:1013B000AE480CF0DFFE20F00040206200217022D9
:1013C0001E2008F0A1F8012120221E2008F09CF820
:1013D000022100221E2008F097F8642007F0B3FADB
:1013E000039BB8F1000F04D14FF07E529A61DA618D
:1013F0001A629F4B10221A619E4B01221A70002123
:101400004FF4A0729C480FF070FDF36943F007039E
:10141000F361B36943F4006343F00C03B3610BF071
:1014200041FB10A8002114220FF05FFD6B790E2BF9
:1014300001D0082B02D101238DF84A3000248F4AB5
:101440000023A05CD75CD118874203D01033702BE7
:10145000F8D1002109F051FD83681B78012B04D0DD
:101460001034702CEBD1002300E0069B8DF8443043
:10147000DAF808308249C3F340028DF84520C3F3FF
:1014800080128DF846200968C3F340328DF8402061
:10149000C3F3C03200318DF842207A48C3F3C02232
:1014A00018BF01218DF84320C3F300428DF8472077
:1014B0008DF8481003F0010201688DF8412091F881
:1014C000B811BAF8E040C1F380018DF84910BAF8BC
:1014D000DE10ADF84E40D8044FF47A74ADF84C10DD
:1014E000ADF8504004D5684BB3F8DA30ADF8503061
:1014F000B1F5FA7F84BF0023ADF85030B5F818314C
:1015000095F82011ADF85230604B83F8E8110021B6
:1015100083F8E91183F8EA119DF84A1098460029EA
:1015200014BF0223002302B10133594A4FF0000BCC
:1015300002EB8303D3F85831CDF81CB00993099B13
:1015400033F80B704FF6FF739F42FAB20CD14F4C39
:1015500094F8E93184F8EB314E4B1F78162F40F0A8
:1015600054814FF0000841E1DFF838919DF84410B4
:10157000130109EB030421B1911EC9B2012940F204
:101580001D819DF8471029B159F803104248814246
:1015900000F014819DF8421011B1012A00F00E8173
:1015A0003F0A022F05D19DF84010002908BF0027EF
:1015B00003E0012F08BF9DF841709DF8481041B12C
:1015C0009DF84A1029B9A2F10801C9B2012998BFB2
:1015D00004279DF8491039B19DF84A1021B9043A01
:1015E000D2B2032A40F2D280012F5DD1FF22E17BEB
:1015F00088F8302288F83122A2684FF0000A60682B
:1016000088F834A2C8F84042ADF854208DF856103E
:10161000022215A988F8ECA1C8F8F0A1C8F8F4A135
:10162000C8F8F8A1C8F82CA288F832A288F833A22A
:101630008DF85720039301F085FC039B217B59F81B
:101640000300524606F006FD20463A464FF6FF716B
:1016500005F090F820465146104A114B05F0A4F8C9
:10166000ACE000BF1400002000406F4601C05E46A1
:10167000000C01407C020020B0070020E837010880
:101680004C05002088030020181E002008070020B9
:10169000003701085005002000040040F920000830
:1016A00001220008B4500108022F3CD10799DFF84D
:1016B00068E35FFA81FA4FEA0A100EEB000100229C
:1016C0004FF0010C8A708A7281F801A00EF800C0F8
:1016D000CC60A16894F80FE06068ADF8541015A9CB
:1016E0008DF856E0CDF810C0059203938DF8577031
:1016F00001F028FC039B217B59F80300059A06F0B2
:10170000A9FCDDF810C0204662464FF6FF7105F0D7
:1017100031F8A84A20465146A74B05F045F8079AEC
:10172000013207924AE0032F2ED1BDF84C30A34F6F
:10173000B3F5FA7F97F8EA910FD9A14A2046B2FB98
:10174000F3F20821BDF8503092B204F0CDFE07EB61
:101750008907C7F8B4029B4B0EE09B4A2046B2FBB8
:10176000F3F20121BDF8503092B204F0BDFE07EB58
:101770008907964BC7F8B4028360904B93F8EA212F
:10178000013283F8EA2119E0042F17D1BDF84E3059
:101790008D4A8A4F92FBF3F22046BDF85230012168
:1017A00092B297F8E99104F09FFE07EB8903C3F822
:1017B000E40297F8E931013387F8E9310BF1020BC4
:1017C000BBF11C0F7FF4BBAEC1E6814B08EB030EEF
:1017D00099E80F008EE80F007E4B08F110081A7888
:1017E000B8F1C00F02F101021A700AD0D4F8A43087
:1017F000002153F8080003EB08090CF09BFD0028BA
:10180000E3D0AB68DB0422D41CE0734B714A03EBDA
:10181000C70393F83080D3F8349082F80080B9F190
:10182000000FEED04FF0000EC645EADA684A4FEAE4
:101830000E1303EB020C4B440FCB0EF1010E8CE8A0
:101840000F00F1E7082FDFF8D48129D12AE0614B9E
:1018500093F800A0BAF1010FF4D9DFF8C4814FF07A
:101860000009D14508F11008ECDA58F8100C4FF0D7
:101870007C510CF0CBFB4FF07C5148F8100C58F821
:10188000140C0CF0C3FB4FF07C5148F8140C58F8C2
:101890000C0C0CF0BBFB09F1010948F80C0CE0E75B
:1018A0000E2F04D198F8003043F0100303E098F8AD
:1018B000003023F0100388F800300BF07BF8474924
:1018C000474B4848484AC4F8C83301600023B5F87C
:1018D0001801C4F8C413A4F8CE3384F8D033C4F884
:1018E000D423C4F8D823414958520233242BFAD1C7
:1018F0003F4B1A60AB68180740F1AE803D4B0022A9
:1019000093F81631042B00F2A180DFE803F0030303
:101910002A448B00012B4FF0030208D184F8DC230A
:10192000072284F8DE3384F8DD230C2308E0022349
:1019300084F8DC33002384F8DE3384F8DD230723C6
:1019400084F8DF3300230093102001232A494FF449
:10195000E1320BF07FFC294BC4F8E403C4F8E83310
:1019600070E001230093264905231020254A0BF03F
:1019700071FCB5F81811C4F8EC03A1F577714900B2
:101980000023214A99500433302BFAD11F4BC4F85D
:10199000E8330C2354E00092012310201C494FF43B
:1019A000E1320BF057FC1B4BC4F8F003C4F8E833EA
:1019B000102345E091800008D52100080807002089
:1019C00000127A002122000840420F001122000874
:1019D0000C0A00208825002000370108261F00205F
:1019E0006838010834010020D00A0020CA0600200F
:1019F00028020020181E0020C1870008F97C00087A
:101A0000D1880008A086010054010020AD7D0008A7
:101A1000598800089D7D00083C0900206A020020CA
:101A2000140A0020009201231020B6494FF4E1323D
:101A30000BF010FCB44BC4F8F403C4F8E8330823EB
:101A400084F8DF33003018BF012028B9082001F0E6
:101A500090F80023C4F8E833AB68590405D5082290
:101A600084F8DF23A94AC4F8E82342F201021A40AD
:101A700003F0010103F400505AB1A54AC4F8E82369
:101A800018B1A44A082082F8DF0311B10C2284F8AF
:101A9000DF2394F8DF2313F0800FA2F1040284F80F
:101AA000E0239D4F47D09B4B07F59672D5F8381130
:101AB000C3F8F8230023994A02EB0310D0F89401ED
:101AC0009146884204D00133DBB2042BF3D90023C2
:101AD00084F8FD33924B0020C4F8183408F03CFA27
:101AE000904B94F8FD231B680021C4F8043497F848
:101AF000263109EB02128B42C4F800144FF020008B
:101B00000091D2F894210CBF012303230BF0A2FB18
:101B1000C4F81C0418B9802001F02BF802E0012061
:101B200008F01AFA804A814B106800F5DD72043023
:101B30001A6001F04DF9AB689A050DD59D044CBFB4
:101B40007B487C4808F0A1F97B4900220B6843F0F0
:101B500010030B60794B1A60794B7A49D4F8D4237F
:101B60000B608033C4F82034774BDFF804A21A608E
:101B7000BB680025D8038AF8005040F1AA804FF0D6
:101B80000109DFF8F0B101F05FF801F099F801F018
:101B900073F88AF8009040F22A3A5246584629468D
:101BA0000FF0A3F9B369694843F00403B36140231C
:101BB000ADF8383018238DF83B300EA903238DF88B
:101BC0003A3006F04FFBF36943F00203F361604BD8
:101BD0001968604BB1FBF3F15F4B01391A8889B288
:101BE00022F45C721204120C1A801D229A85198547
:101BF000A3F814901A8C22F001021204120C1A8419
:101C00001A8C9888198B22F0020221F073010904C2
:101C10001204090C120C41F0600180B242EA090280
:101C2000988019839D861A841A8B22F00802120468
:101C3000120C42F008021A83B3F844206FEA4242C1
:101C40006FEA524292B2A3F84420726942EA090252
:101C50007261424E0393304604F08EF9404ACDF84B
:101C600058B0159280221A924FF480724FF0100BE8
:101C70001B9230464FF4005215A91E92CDF85CB06D
:101C8000CDF860A019951C951D951F9504F056F987
:101C9000039B0FA89A8992B242F400729A8133682A
:101CA00043F00203336002238DF83CB08DF83D9081
:101CB0008DF83E308DF83F9006F066FA294B1A6891
:101CC000294BEA500435802DF8D107F0EFFF07F0DB
:101CD000EDFFBB68590540F1A8800121042009F0FF
:101CE00091FA01210546082009F08CFA0A4B284395
:101CF0009B6884F84E0713F4806F1C4D3CD1002282
:101D0000069257E00D880008897D0008C17D000813
:101D1000CD7D000808070020181E002000370108AC
:101D20003E1F0020141E00208803002040050020D4
:101D3000E0380108EC38010834020020A00000203F
:101D40006C1F002044060020F0060020000801401F
:101D5000A400002000366E01000400406C00024028
:101D600034040040C4360108480600205C05002009
:101D7000360600202C0B00202B681B78032B0FD17C
:101D80002B681B78032B15D1082009F0BEF90146FA
:101D9000082009F0B2F8003018BF0120069009E0D1
:101DA000042009F0B2F90146042009F0A6F8002841
:101DB000E6D1A4E7424B06992D6819702B7813B928
:101DC000404B1D6023E0012B21D13F4E00213046C6
:101DD0002C22C4F850570FF088F88E2373704FF000
:101DE0007C0AE0234FF07D09F37086F800A086F8A6
:101DF0002B90364E002130462C220FF076F88A23A5
:101E00007370A02386F800A0F37086F82B902B78CF
:101E1000022B02D1C4F8545703E0032B08BFC4F8C7
:101E20005857069A0AB10AF01BFF06F07FFC284BB0
:101E300018607B79052B03D1264B4FF4C8721A80AA
:101E4000254B4FF47A721A80244BC8221A8098F8D6
:101E5000003043F0080388F80030214B1A7822F054
:101E600002021A70BB689A071ED51E4BC4F85C3775
:101E700007F0DCFE282006F066FD089B013B089376
:101E8000F6D1194B97F8051118780A4601239042AC
:101E900003D30133082B0A44F9D1144A137097F87D
:101EA00006215343A4F86037BB689B0305D594F81B
:101EB000533043F0010384F8533021B0BDE8F08F74
:101EC000580500207405002098050020C405002056
:101ED000B40400200C040020AC250020B82500200C
:101EE000B62500201C1F002078050020940000204B
:101EF000034B4FF4805208B11A6170475A61704722
:101F000000080140034B4FF4805208B15A617047FA
:101F10001A61704700080140032810B50F4B0DD817
:101F20000F4A126894888C4208D2D2888A4205D916
:101F3000012202FA00F01A78104318701B780F2B58
:101F40000BD1064B00221A70064B998808B2142850
:101F500002DD1439998010BD9A8010BD6C0E0020EE
:101F600090190020D00A0020024B9A8801329A80F2
:101F7000704700BFD00A0020074B1A68074B117842
:101F8000B3F9040053780B4403EB83039842D4BFA6
:101F900000200120704700BF90190020D00A0020C7
:101FA000064BB3F90400064B1B681B7803EB830355
:101FB0009842D4BF00200120704700BFD00A002003
:101FC0009019002010B50446FFF7EAFF002814BF5F
:101FD0002046002000F0010010BD024B01221A72C1
:101FE000704700BFD00A0020014B187A704700BF2D
:101FF000D00A0020034BB3F90400D0F1010038BF30
:1020000000207047D00A0020014B00229A807047C0
:10201000D00A002003685A1C026019707047016BD7
:102020000346C26810B5406941B1196C541A005D8D
:10203000013918BF0A46C0B21A6410BD196A405C63
:102040000131B1FBF2F402FB1412C0B21A6210BDEE
:10205000026B03691AB15168013B026C02E0C1696D
:10206000026A013B881A1840C0B27047436B13B133
:1020700090F844007047826A436AD31A5842584124
:10208000704743799B070AD5436A8269D154426AF3
:1020900003690132B2FBF3F103FB11234362704782
:1020A000437913F0010307D0C368C169026A013B99
:1020B000881A1840C0B2704718467047437910B567
:1020C00013F0010304460DD0FFF7EAFF58B1226A6E
:1020D0006369985CE3680132B2FBF3F103FB1123FF
:1020E000236210BD184610BD426A806A131A584216
:1020F0005841704741717047334A10B5136C90686E
:102100001944081A40F68C2398429160D0605160BF
:1021100013463DD9127893F945108A420CD1111F0C
:10212000C9B2082908D893F84610182901D80131F6
:1021300003E083F8442002E0002183F8461093F97D
:1021400044108A421CD1204991F84710C1B10021A6
:1021500091421E4806DA03EB8104246920F81140FD
:102160000131F5E7511E00EB41011630814203D0E9
:10217000002421F8024FF9E715490878013008706A
:1021800083F84520002201211A7083F8471010BD02
:1021900092F84710B9B1A0F2EF2440F2DA518C4224
:1021A00008D811780B2905D80B1D0131117042F8A0
:1021B000230010BD002283F8472099180432002024
:1021C000302A0861F9D110BDF4080020C2130020A4
:1021D000DC190020084B03EB0010837A0133DBB2DB
:1021E0000A2B837207D983781BB94178034A22F8F6
:1021F00011300023837270473C090020C213002075
:10220000024B1A6C11441964704700BFF408002097
:10221000024B53F820301B6819807047BC0900201E
:10222000074BA1F57A7153F820304FF47A701A6891
:102230009B884B4393FBF0F39BB21380704700BF26
:10224000BC0900202DE9F04F504A514E17687389A0
:1022500084463089A7EB032785B0039187FB0001F3
:10226000B288CB111404C209F08842EA416287FBAC
:10227000000114EB020872884FF000054FEAC234E7
:102280004FEA1022B08945EB030942EA01620B12C2
:1022900087FB000114EB020A4FEAD05242EA4122C6
:1022A0004FF0000545EB030B12F5FA604FEAE153DE
:1022B00043F10001CDE90001B0F5FA6F71F10001C1
:1022C00047DAA2FB024502FB03F1052605EB4105B7
:1022D000A4FB060106FB05114D104FEA3004B8EBD4
:1022E000040869EB050984082A4844EA81748D10C2
:1022F0004FF0FF31BAEB040A6BEB050BDDE900454B
:1023000084428D4125DA40F6AC5012184FF000019E
:1023100043EB010302FB03F1A2FB02236FF0060073
:1023200003EB4103544200FB0344A2FB000118EB02
:10233000000821444FF00B0449EB0109A2FB040102
:1023400004FB031149104FEA3000BAEB000A6BEBB3
:10235000010B114B1A68A2FB0A0102FB0B11420D83
:1023600042EAC1224B15B2EB080263EB0903D00B22
:1023700040EA4340BCF1000F01D0CCF800000398C4
:1023800008B10099016005B0BDE8F08F7C1900200C
:102390006C07002024FAFFFF80190020324B2DE942
:1023A000F0411C88314B0A265A89B3F91250A41AFD
:1023B0001A89ED025443B3F91420E413224495FB27
:1023C000F2F22244DA615643A2F57A6202FB02F489
:1023D000B3F90480B3F902C0B3F90E7002FB0CFC30
:1023E00002FB08F2B3F90C802413674304FB08F4E2
:1023F000241404EB62320232DC88921002F50042AF
:10240000B3F920506243B3F900304FEAEC2404EBF7
:10241000E72404EB8304AC40154B02341B68D20B59
:10242000A3EBA4044CF250332B41634355BF5B0034
:10243000B3FBF2F3B3FBF2F35B001A12524340F624
:10244000DE3462430B4C08365C43241404EB224216
:1024500002F6CF62361103EB221300B1036001B123
:102460000E60BDE8F08100BF8C19002080070020BD
:102470008819002043E3FFFF08B5024B1B6898470B
:1024800008BD00BFBC25002008B503685B699847FC
:1024900008BD08B503681B69984708BD08B50368FF
:1024A000DB68984708BD08B503689B68984708BD76
:1024B00008B503685B68984708BD10B5044C2068F0
:1024C000FFF7F6FF18B12068FFF7EDFFF6E710BD44
:1024D000F805002008B503681B68984708BD014B44
:1024E0001868F7E77C13002038B5084B05460C4602
:1024F00018682946FFF7EEFF34B123881D44ADB2BA
:1025000005EB1525EDB2258038BD00BF2006002063
:1025100038B5054C05465E212068FFF7DBFF2068D3
:102520002946BDE83840D5E760050020014B5E2113
:102530001868CFE76005002010B50A4C5E280146F8
:10254000206805D15D21FFF7C5FF20683E2105E029
:102550005D2903D1FFF7BEFF20683D21BDE8104093
:10256000B8E700BF6005002010B50446C0B2FFF711
:10257000E3FFC4F30720BDE81040FFF7DDBF10B54F
:102580000024094BE0B21B7883420CD9074B33F887
:102590001010074B53F820301BB10B2801D89B6853
:1025A00098470134EDE710BD882500208A250020DA
:1025B000BC090020054B1B6803EBC00090F90630F6
:1025C00019420CBF01204FF0FF30704794190020D2
:1025D0000A4B1A6802EBC002D379FF2B07D00849D7
:1025E0000978994203D9074A32F8130004E0072812
:1025F000D4BF908840F2DC5000B27047941900209C
:10260000E70A0020CA0600202DE9F04F0C68836815
:1026100089B0D0F800A0D0F8048006462046039385
:102620008B460EF0E9FE074620460EF087FFDBF8EA
:102630000440814620460EF0DFFE054620460EF09F
:102640007DFFDBF808200446104601920EF0D4FE10
:10265000019A834610460EF071FF394602905846A3
:102660000BF0D4FC3946049002980BF0CFFC59468D
:10267000059048460BF0CAFC0299069048460BF0BC
:10268000C5FC2946079058460BF0C0FC0146504651
:102690000BF0BCFC2146834606980BF0B7FC0146C4
:1026A00005980BF0ABFB014640460BF0AFFC014632
:1026B00058460BF0A3FB2146834604980BF0A6FC7A
:1026C000014607980BF098FB014603980BF09EFC1F
:1026D000014658460BF092FB3060029905F100402C
:1026E0000BF094FC014650460BF090FC21468346CB
:1026F00007980BF08BFC014604980BF07DFB01461C
:1027000040460BF083FC014658460BF077FB214610
:10271000834605980BF07AFC014606980BF06EFB99
:10272000014603980BF072FC014658460BF066FB1D
:102730002146706050460BF069FC2946044609F1B9
:1027400000400BF063FC014640460BF05FFC014685
:1027500020460BF053FB3946044628460BF056FC46
:10276000014603980BF052FC014620460BF046FB55
:10277000B06009B0BDE8F08F2DE9F84F384E04463F
:10278000376838460EF038FE054638460EF0D6FE5D
:102790007668804630460EF02FFE834630460EF0B7
:1027A000CDFED4F804900646294648460BF02EFC90
:1027B000A7688246414638460BF028FC0146504641
:1027C0000BF01AFB2168824658460BF01FFC41466D
:1027D000044648460BF01AFC31460BF017FC014644
:1027E00020460BF00BFB3146044638460BF00EFC3E
:1027F00029460BF00BFC014620460BF0FFFA014680
:1028000050460EF029FF17490BF000FC0AF0F2FFCA
:1028100011A3D3E900230BF06BF9134B044618689E
:102820000D460AF0E7FF02460B46204629460AF00D
:1028300083FE00220D4B0BF05BF90BF089FA0EF0D2
:1028400011FE83B21A0444BF00F5B4739BB218B2F0
:10285000BDE8F88FAFF30080182D4454FB210940E8
:102860006C0400200000E144A40700200000244084
:10287000064B1B7803F0040303F0FF001BB1044B6D
:102880001888C0F3C01000F001007047B625002082
:102890003C020020034B1A78510744BF22F0040287
:1028A0001A707047B625002070B5FFF779FB38B372
:1028B000144C237A0BB9A38070BD134D2E78C6F348
:1028C0008000FFF77FFB90B1104B46F002061A68BC
:1028D0000F4B51892E7019805189598052899A80E5
:1028E0000C4A12685288DA80E3880133E380FFF7EC
:1028F00043FB10B92B785B0702D4BDE87040C9E7F1
:1029000070BD00BFD00A0020B6250020CC0A0020F0
:10291000CA060020901900202DE9F04102780346F4
:10292000202A00F10100F9D0092AF7D02D2A02D17E
:102930000346414D04E02B2A08BF03464FF07E5565
:102940001E460024334616F8012BA2F13007F9B2D7
:1029500009290DD8394920460BF058FB0446384662
:102960000BF000FB014620460BF048FA0446E9E76D
:102970002E2A17D1314F334616F8010B3038C2B228
:10298000092A0FD80BF0EEFA39460BF0F3FB01469B
:1029900020460BF033FA2949044638460BF036FB43
:1029A0000746E8E71A7802F0DF02452A38D15A785C
:1029B0002D2A02D10233012604E02B2A14BF013351
:1029C00002330026013B002713F8012F303AD1B221
:1029D000092903D80A2101FB0727F5E7B7F59A7FF4
:1029E00028BF4FF49A77B8464FF07E51B8F1070FE1
:1029F00007D9084612490BF009FBA8F1080801465F
:102A0000F4E707F0070737B108460C490BF0FEFA68
:102A1000013F0146F7E72EB120460BF0ABFB04E087
:102A20004FF07E5120460BF0F1FA014628460BF09C
:102A3000EDFABDE8F08100BF000080BF000020413A
:102A400020BCBE4CF0B50124B0FBF4F58D4201D39F
:102A50004C43F9E70026DCB1B0FBF4F504FB1500AC
:102A6000B4FBF1F41EB9002D01DC002CF3D1092DCB
:102A700003F101075FFA85FC04DD002A0CBF57252E
:102A8000372500E0302565441D7001363B46E2E7FE
:102A90001C70F0BDF0B50124B0FBF4F58D4201D3FC
:102AA0004C43F9E70026DCB1B0FBF4F504FB15005C
:102AB000B4FBF1F41EB9002D01DC002CF3D1092D7B
:102AC00003F101075FFA85FC04DD002A0CBF5725DE
:102AD000372500E0302565441D7001363B46E2E7AE
:102AE0001C70F0BD70B50646B6FBF2F408461546FC
:102AF00014B12046FFF7F6FF05FB1464024B1B5D83
:102B000000F8013B70BD00BF6E5201082DE9F04195
:102B1000069C002B06460F460CBF4FF020084FF0D6
:102B20003008234613F8011B09B9154603E0002AB3
:102B3000FBDD013AF6E7002D04DD30464146B8479B
:102B4000013DF8E714F8011B11B13046B847F9E729
:102B5000BDE8F08180EAE073A3EBE0738B4206DB13
:102B6000002801DD401A704702D008447047002059
:102B70007047034B9A6822EA00009860704700BFD4
:102B8000181E00200E4B1B78BBB10E4B1B681A7829
:102B9000032A06D10C4B187802288CBF0020012094
:102BA00070475B7823B1094B1868C0F3C040704789
:102BB000074B1878C0F3800070470120704700BFB2
:102BC000560E00205C0500201C0600203802002064
:102BD000B6250020114A30B50028B8BF4042104C3D
:102BE00090FBF2F304FB03003C2568430D4D90FB82
:102BF000F2F22D682D7B25B903EB830303EB8303EE
:102C000001E0C3EB031302EB830304FB02020B801E
:102C10004FF47A7392FBF3F24A8030BD80969800AD
:102C2000806967FF7405002008B506480EF09EF91C
:102C3000C0B2142805D8034A431C20211154D8B22D
:102C4000F7E708BDC5190020094A0A48002310B556
:102C5000116803701A46CC1864880CB9CC5C24B196
:102C600004330132802BD2B2F5D1027010BD00BF07
:102C700044060020C806002010B50B4B0B481978FD
:102C80000B4B5A784B085C1E047001F00101094897
:102C90000B44037008495308581E087002F00102E3
:102CA000064913440B7010BD01070020FC060020EC
:102CB0006C0E0020FE060020FF060020FD0600200E
:102CC000F0B50F4A0F4816780F4A00231768437073
:102CD0001A4619460546D0B2B0420CD217F8220067
:102CE000013204099C4200F00F00A8BF631C884217
:102CF000A8BF411CEFE76B70044B1970F0BD00BF1B
:102D0000C80600206C0E00204406002001070020A9
:102D1000F8B5101A0C461F460BF024F90546381B6F
:102D20000BF020F9174B079E19680BF06FF9294635
:102D3000044628460BF06AF92146074620460BF068
:102D400065F9014638460BF059F80EF00FFE0E49B2
:102D50000BF05CF90BF046FB069B2146186005F171
:102D600000400EF079FC09490BF050F908490BF0CE
:102D700045F80BF011FB0028BCBF00F50C40A0305B
:102D80003060F8BD3C0000202C7D8E3FA00CB34588
:102D900000A00C4610B50BF0E5F8002104460BF03E
:102DA000F1FA08B1204601E004F1004005490BF0BA
:102DB000E1F905490BF02AF90EF01EFB034B1860F0
:102DC00010BD00BF8096184B35FA8E3C3C000020A9
:102DD00070B5044600790BF0C1F81E490BF0CAF932
:102DE0001D4D1E4E2860A07B0BF0B8F819490BF062
:102DF000C1F9EE60686060790BF0B0F818490BF02B
:102E0000B9F9184D2860E07B0BF0A8F811490BF0D8
:102E1000B1F96860607E0BF0A1F813490BF0AAF9D4
:102E2000EE60A860A0790BF099F80D490BF0A2F9BB
:102E30000E4D2860207C0BF091F806490BF09AF9B2
:102E40006860A07E0BF08AF807490BF093F9EE60FA
:102E5000A86070BD0000C842D01000200000FA44F5
:102E600000002041E010002000007A4404110020FE
:102E700044F25063984203DDA0F50C40A03870473F
:102E8000034B9842BCBF00F50C40A030704700BF18
:102E9000B0B9FFFF10B50023094CDAB254F8224054
:102EA00001338442F8D10023064CD8B234F81040E4
:102EB00001338C42F8D102EB8000C0B210BD00BFDC
:102EC000E83D0108F43F010890F83B3210B57BB9AA
:102ED00090F83A3290F83922934209D20121994070
:102EE000B0F8404201332143A0F84012DBB2F3E7CF
:102EF00010BD8379012B03D1D1F1010138BF00212D
:102F0000D0F834315A681B8909B113617047536195
:102F10007047044B53F820301BB107289CBF1B6837
:102F200019807047EC09002010B5054C002021885D
:102F3000FFF7EFFF61880120BDE81040E9E700BF1F
:102F4000840000202DE9F0410F88002347FA03F2A6
:102F5000D2072BD58A7803F0070512F0100F18BF9F
:102F600091F803C002F00F0618BF46EA0C06AD0048
:102F70004FF00F0C0CFA05FC06FA05F5DC0850F8CA
:102F80002480282A28EA0C0C45EA0C0540F8245035
:102F900005D101229A40C46824EA020205E0482AC9
:102FA00004D101229A40C4682243C2600133102B2D
:102FB000CCD1BDE8F08100BFA14A2DE9F04F1368E4
:102FC000A04903F59C43A04D20330B60AB6885B04E
:102FD00013F4807F174604D09C4B1B681B681B6949
:102FE0009847AB6842F201041C405CB9984E3378B4
:102FF00073B1964B1B681B681B68984709F0CEFBA2
:10300000347005E0934B1A7801321A7009F0C6FB50
:10301000AB68DA0405D5904B1B68DB0701D4FFF7DA
:1030200039FC8E4B3C681B681E7CCEB18C4A013E3D
:1030300032F91600A0F57A70B0F57A7FA8BF4FF488
:103040007A7020EAE0700AF08DFF86490BF092F862
:1030500085490AF0DBFF0BF0C5F97E4B58803EE056
:10306000AB681F043BD57B4A5368E31A002B36DB61
:1030700004F59C43203353607C4B59797C4B33F8E7
:103080001100137A80B2013303F00F031372D718C3
:103090000AF068FF77490BF06DF80BF0A3F933469F
:1030A000787230466B4E06F109029A5C0133104487
:1030B000102B80B2F6D100B290FBF3F000B264287E
:1030C000A8BF642020EAE0700AF04CFF6A490BF0C8
:1030D00051F865490AF09AFF0BF084F97080AB68EB
:1030E000D80510D5654B9C42654C08D923681B68F0
:1030F0001B6A984718B923681B685B6A984723685E
:103100001B685B699847AA68DFF8548112F4805FF6
:103110004D4BB5F8DC10B8F9062007D0B3F81831DC
:10312000581A824207DD19448A4202E0B3F81A3184
:103130009A42C0F21C840122002195F8219195F851
:103140002201B5F81A61B5F81C710B4638F9014037
:103150009B08B442C4BF63F07F03DBB20231BC42C0
:10316000B8BF43F040030829F0D13A4C617E994240
:1031700004D1A17EF92903D8013100E00021A17614
:103180006376404B344F1978A1B93B68D90707D50E
:1031900082B93D4B1B78DB070CD505F005FC09E037
:1031A000394B1B785E0705D510B1FFF773FB01E0C3
:1031B000002AFAD0A37E274A142B344E40F0988080
:1031C000314B19F100091B7818BF4FF0010903F0CA
:1031D000040303F0FF0083B12A480378002B00F0BA
:1031E0008780537E5F2B02D1FFF754FB80E0B9F15B
:1031F000000F7DD07D2B7BD1F6E7537E572B0BD173
:10320000234B4FF47A721A80224B1B6813F0080389
:103210006ED1214A13806BE0A968490746D55A2B25
:1032200044D11E4B197819B1187001221C4B4EE085
:10323000D17E1C4B81F00101D176A9B3042246E076
:10324000A42500202C020020181E002028020020A7
:1032500030010020700E00203802002034010020D0
:10326000CA06002000007A4400C07F4416070020F0
:1032700026070020CDCC23420000C842404B4C0022
:10328000DC0A002038000020B6250020880300203A
:10329000AC250020340200208404002039040020E2
:1032A0003B0400203A040020062210E05D2B00F0D1
:1032B000E4825B2B00F0E3825E2B0AD10322DFE283
:1032C000A72B40F0FC82B34B1A7842F004021A702C
:1032D0000EE0562B01D109F00FF8AF490B78002B07
:1032E00000F0E482637E6F2B40F0DA8205F05CFB35
:1032F000AB685A0731D5E37E9BB1A84B1B785B07BF
:103300000FD5A74BB8F90620B3F81A319A4208DD59
:103310003B6813F0010304D1A24A32211180A24A72
:10332000D3763B68D8030AD5A04B1A782AB9A04AAD
:10333000127812B99B4A3221118001220CE09C4B79
:103340001A7852B1954A127802F0040202F0FF0195
:103350001AB91970974B01221A703668002306F1CA
:103360007D0B3B6006F17F0A99460BF1020303EBEC
:10337000090113F809204B781AF8010C9A420AD275
:10338000514603F08DF830B11AF8023C01229A4000
:103390003B6813433B6009F10409B9F1A00F0AF13E
:1033A000040AE2D106F21D12009206F58F774FF063
:1033B0000009009A17F8010C531C03EB090113F8DC
:1033C00009204B789A422CD2394603F069F840B371
:1033D00097F802A07848744A0AF1FF3A397900EB6D
:1033E0004A0302F11C0C01930CEBC10310F81A0004
:1033F00093F801A097F803B0824512D00CF831B0D1
:103400005870019890F801C0002083F802C05860FD
:10341000012303FA01F192F83C3023EA010182F81A
:103420003C1009F10609B9F1480F07F10607C0D1B0
:10343000624B634FD3F800A006F150094FF0000B28
:103440003A78002A00F00181D7F80330C3EB0A0371
:10345000002B0CDB0AF5FA73C7F80330012303FADB
:103460000BF394F83C1021EA030384F83C3017F87E
:10347000013CB5F818110433DBB238F9133001F10F
:10348000C800834201DD7B7813E0C8398B4202DA41
:103490007B785B420DE0012303FA0BF394F83C20A8
:1034A00022EA030384F83C300AF5FA73C7F80330C4
:1034B000CBE094F83C0040FA0BF1C90700F1C5805D
:1034C000012101FA0BFC4CEA000C3748002B80F874
:1034D0003CC03C48C8BF0221013A01700A2A00F2F0
:1034E000B480DFE802F006111F2E39447183959FE6
:1034F000A90096F850201344FA2BA8BFFA2323EA18
:10350000E37386F8503009E096F851201344642B99
:10351000A8BF642323EAE37386F85130484605F0D8
:10352000EBF892E096F8532048461344642BA8BF6A
:10353000642323EAE37386F85330216C05F098F88E
:1035400083E096F854201344642BA8BF642323EA35
:10355000E37386F8543078E096F855201344642BD2
:10356000A8BF642323EAE37386F855306DE0616CED
:103570004A781A44C82AA8BFC82222EAE2724A70CE
:103580000A781344C82BA8BFC82323EAE3730B703F
:103590005BE000BF6A02002038000020B625002052
:1035A000181E002020040020700E00203804002087
:1035B000390400203B040020F83D0108141E0020BF
:1035C0008D0E00203A040020616CCA7A1A44C82A81
:1035D000A8BFC82222EAE272CA728A7A1344C82BB0
:1035E000A8BFC82323EAE3738B722EE0616C4A7D87
:1035F0001A44C82AA8BFC82222EAE2724A750A7D84
:103600001344C82BA8BFC82323EAE3730B751CE03F
:10361000626C91780B44C82BA8BFC82323EAE373DC
:10362000937012E0626C117B0B44C82BA8BFC823B7
:1036300023EAE373137308E0626C917D0B44C82B9B
:10364000A8BFC82323EAE37393750BF1010BBBF109
:10365000040F07F108077FF4F3AEA14FDFF8D4821F
:103660003B68A04E13F0020F04D0D8F800309B073F
:103670000BD415E0AB68D80512D59B4B1B681B68B3
:103680009B6898470028F0D10AE0338813F00102C4
:103690000CD1944943F00103A264E2640B8006E07C
:1036A0003388012223F00103338000E000223B68CD
:1036B000590710D57AB1328822F0010102F00202D6
:1036C00089B292B2318052B9A264E264854A41F073
:1036D0000201118003E0328822F002023280328837
:1036E000824912F0030F4FF0100014BF48610861C7
:1036F000D8F8001011F00A0F21D0D80609D55407C8
:103700000AD442F004023280794A1088794A108043
:1037100002E022F0040232809806328806D5540670
:1037200007D4704842F04002028002E022F04002DA
:103730003280580603D56E4A10886F4A10808A0678
:1037400040F186806D4A127894077AD56C4A1278D7
:10375000042A76D913F4007C328812D002F01003C8
:103760009BB2002B74D15F4922F0200242F010027C
:1037700064480A80644A011D537004F045FA02222D
:1037800064E022F0100189B2580531802CD55F4BDE
:103790005F4C1B685889B4F90030002BB8BF5B42FE
:1037A000834209DAB4F90230002BB8BF5B4283428E
:1037B000ACBF0023012300E06346DB0714D502F011
:1037C000200292B2002A43D14F4B52485A70524BBA
:1037D00041F020011A685B683180011D026043607E
:1037E00004F012FA012231E022F030023280464A1F
:1037F00053786BBB012151701A4648490020505242
:103800004749484C5052484904EB030C50520021A0
:1038100019510232CCF80400CCF8081004F1280C3D
:10382000503443F80C1019519C441C44042ACCF821
:103830000400CCF808106060A16003F11403DCD12F
:1038400006E03388002223F030033380374B1A70B0
:103850003B6813F4006F338814BF43F4807323F480
:10386000807333806B79082B02D00E2B40F092804E
:10387000338823F0400333808CE0012200E00222F1
:103880005FFA82F909F1FF3385F86C3707F0EEFC37
:1038900008F024FA022028214A4605F05EF827E5C0
:1038A000B9F1000F02D07E2B3FF420AD637E972B41
:1038B0007FF406AD1E4B4FF4C8721A8018E5002243
:1038C000BB2B039201D1022303E0B72B04D14FF6A7
:1038D000FE73ADF80E3036E0BE2B2DD1022330E062
:1038E000380200203C020020DC0A0020000C0140CD
:1038F000840400202E050020481100206A020020C8
:1039000088050020201200203800002040050020FB
:103910004A020020281200208C050020B225002039
:1039200044050020C00E0020480500203012002071
:103930000C04002034020020BD2B7FF4D9AC4FF6DC
:10394000FE73ADF80C303368BDF80C10B3F85C2092
:103950000A44A3F85C20BDF80E10B3F85E200A44B8
:10396000A3F85E2008F0C8FC0023A376C0E40B4B4C
:10397000002200219A64DA64C3F8C820C3F8CC207E
:10398000C3F8D020C3F8D410C3F8D810C3F8DC10A3
:10399000FFF7D2BB05B0BDE8F08F00BF700E00206E
:1039A0002DE9F04F974B91B01B68BBB9964C23782B
:1039B000013B042B00F20487DFE813F01D061D060F
:1039C0001D06F206D8062068FEF76DFD8F4B0446F3
:1039D0001B681B784BB1012B00F0ED80894C2068EF
:1039E000FEF766FD0028EED1E0E72428884D0CD0D4
:1039F00006D80A2800F08E800D2800F08B80C6E0E3
:103A00002A2806D02C2804D0C1E02B706B70AB7034
:103A1000CEE06A782E782A4400217D4BD170EEB931
:103A2000DA789E74472A19D11A79502A16D15A7910
:103A3000472A07D19A79472A04D1DA79412A01D154
:103A400001229A746A79724B522A07D19A794D2AC7
:103A500004D1DA79432A04BF02229A74AB7C6C4FFA
:103A6000012B02D0022B36D049E0B31E072B46D8DB
:103A7000DFE803F0040810141C27452C02F058FF5F
:103A800068613CE0EA78624B532A38D15A69524265
:103A90005A6134E002F04CFFA86130E0EA785C4BF8
:103AA000572A2CD19A6952429A6128E0EB78302B40
:103AB000584B1A788CBF42F0020222F002021A70B0
:103AC0001DE0002002F090FF287718E0002002F0AF
:103AD0008BFFE88313E0072E06D0082E0FD10120BC
:103AE00002F082FF78840AE0012002F07DFF41F2BB
:103AF000184358434FF47A72B0FBF2F33B8401361B
:103B000000232A2C424A2E706B704CD1012182F87E
:103B100024104DE095F82430002B34D03C4BDB785A
:103B2000402B04D9A3F137021201D2B202E01B01EB
:103B300003F0F0022B79A978402B8CBF373B303B48
:103B4000DBB21344DBB29942314A1BD1937C012B87
:103B500008D0022B16D1118C2F4B528C19802F4B71
:103B60001A800FE02B4909788E070CD52C49506933
:103B7000086090694860107F2A490870D18B2A4AF2
:103B8000118000E00023002285F8242010E06B78EB
:103B90001F4A0E2B03D8591C13445170DC7095F842
:103BA00024301B4A1BB991784C40947000E00023EC
:103BB00003F0010361E1164B002193F82520082A48
:103BC00000F25A81DFE802F00B0514324353718D85
:103BD0009A00622801D1022207E083F82510B52C53
:103BE00040F04A8193F82520013283F8252043E1F3
:103BF000032283F8252083F8260083F8270083F822
:103C0000280039E1240B0020040B0020200B0020A9
:103C1000500F00206A020020840500207614002046
:103C20008C0500208805002086050020042283F8EA
:103C3000252093F8272093F828100244D2B283F865
:103C400027200A4483F8282083F8290014E105225C
:103C500083F8252093F8272093F828100244D2B245
:103C600083F827200A4483F82820588504E1062198
:103C700083F8251093F8271093F828002144C9B23F
:103C800083F82710014483F82810598D6C4A01EB02
:103C90000424A4B2B4F5007F89BF00215485518566
:103CA00082F8251000229A85E6E093F8272093F801
:103CB00028100244D2B283F827200A4483F828202F
:103CC0009A8DC72A03D85E49114481F83000013229
:103CD00092B29A855B8D934240F0CE800722584B7A
:103CE00083E7082283F8252093F82730834200F0E9
:103CF000C380534A002382F82530BEE083F82510A4
:103D000093F828104E4A814240F0B68092F829106C
:103D1000062947D004D8022912D003292CD0ABE0C1
:103D200012295CD0302940F0A78092F83410454A1F
:103D3000102988BF102111701078434900225CE0DF
:103D40004249506B4860906B0860116C4FF47A7078
:103D500091FBF0F13E48018092F8F8103D4A19B10C
:103D6000117841F0020102E0117821F00201117096
:103D7000012283F8F92055E092F8351011F0010185
:103D800005D092F83420D41E6242624100E00A4617
:103D900083F8F820002A45D12E4A117821F002013B
:103DA00011703FE092F83B1011F0010105D092F83C
:103DB0003A20D01E4242424100E00A4683F8F820F1
:103DC00022B9244A117821F00201117093F85F1092
:103DD000214A1170B3F85C10204A118022E0516C26
:103DE0001F480180916C42F2107091FBF0F11D4868
:103DF0000180012182F8FA1014E0824201F10C01E5
:103E000010DA11F8045C184C155511F8035C174CC6
:103E1000155511F8015C164C15550D78154C1555B6
:103E20000132EAE793F8F930054A2BB392F8FA30F9
:103E300013B3002382F8F93082F8FA3001231CE032
:103E4000500F002078140020800F00208C050020E7
:103E5000860500206A020020880500209C000020C2
:103E60008405002076140020791400208914002095
:103E700099140020A91400200023002B3FF4AEADBC
:103E8000A64BA74E9A68DA6032689A60A54B1A680A
:103E900042F020021A60A44B1A78012A0CBF0022BB
:103EA00001221A70A14B1A7891077FF597ADA049AE
:103EB000097804297FF692AD9E49097801F0040142
:103EC00001F0FF0011B922F001021A701B78974F20
:103ED00013F0010F984C994D11D180B19B070ED56D
:103EE000974B28686A6818605A60FEF753FF954B35
:103EF0001B88A4F8FC303B7843F001033B7094F836
:103F0000FE304FF00509013393FBF9F909EB8909FC
:103F1000C9EB03098C4B8D481B7884F8FE90059300
:103F2000831D03EB890907900023DFF810E2884A1C
:103F300053F80E00874F985090FBF7FC02F10807EA
:103F400043F807C0844F03EB0E0107FB0C0742F256
:103F5000107097FBF0F00691079980B221F8020FDC
:103F600002F1100A03EB830B0490079153F80A0047
:103F700059F80B1049F80B70C1EB000808EB07006B
:103F8000744F4FF0050843F80A0090FBF8F007FB68
:103F90000C000599183201299850774609D1DDF8AF
:103FA00010E0AEF1020292B2B2F5797F9CBF0699A1
:103FB00008600433082BB8D1DFF87C813068D8F86A
:103FC0004C31C01A09F0CAFF64490AF0D3F83368CB
:103FD0004FF07E51C8F84C3181460AF0B5F910B95E
:103FE0004FF07E5000E048460CAAC4F85001544BF4
:103FF00000920DAA019297E803000CCBFEF788FE11
:104000000C9B57496422B3FBF2F30D980B80554B80
:1040100090FBF2F21A80454A474E127812F00102E4
:1040200008BF1A8098F8543108BF0A80002B3AD094
:10403000D6F850114FF07E500AF09CF8D6F858315F
:1040400081462868C01A09F08DFF494609F0DEFF55
:104050000AF0A2F9D6F85C211FFA80FA68680FFA14
:104060008AFA801A09F07EFF3F4B196809F0CEFFEB
:10407000494609F0CBFF0AF08FF9B6F9623100B278
:10408000C218B6F960310221534492FBF1F293FB5E
:10409000F1F392B29BB2A6F86621A6F86431A6F8B5
:1040A0006221A6F86031012388F854312F4B7968DA
:1040B0001B88386803F030031F4D204EC8F85C1190
:1040C000C8F85801002B3FF489AC05F5B87300938C
:1040D00005F5BA730193D5F86821D5F86C31FEF770
:1040E00017FE7368D5F86C01C01A09F03BFF1E4B30
:1040F000196809F08BFF0AF04FF9D5F8683132687A
:10410000C5F87C019B1AC5F878310F4B1B78012B41
:104110002ED0022B00F0FA8060E400BF040B0020D8
:10412000141E0020340200201C1200206A0200200D
:1041300088050020B6250020500F00208C050020A7
:104140002012002084040020301200204E10002095
:104150007C10002080969800806967FF00007A44F8
:10416000F0050020F20500203C0000203C02002069
:10417000D5F88071D5F89C410497D5F8907104F179
:1041800000400597D5F89471D5F8506107970AF06B
:1041900003F9804620460AF0FFF88F4BD5F8985176
:1041A0001B688E4C0695089009930025DFF84CA2F9
:1041B0005AF81570AAF11403384635F8039009F03F
:1041C000D1FE049909F022FF0AF0E6F8C9EB0000DD
:1041D00080B20AF1280A25F80A000FFA80FA504640
:1041E00009F0C0FE059909F011FF0AF0D5F81FFA91
:1041F00080FB0AEB070009F0B5FE079909F006FFFE
:10420000314609F003FF216809F0F8FD0AF0C4F80F
:10421000404505DBDDF820E07045A8BF704600E0B2
:10422000404609F09FFE20600AF0B6F858441FFA95
:1042300080FB606809F13109381A09F093FE3146B4
:1042400009F098FF0999206184468878D4F808A07D
:10425000CDF80CC009F082FE09F0CCFA5CA3D3E9DA
:10426000002309F01BFB02460B4600205C4909F0C5
:104270003FFC09F06DFD314609F0C0FD01463046B6
:1042800009F078FFDDF80CC0034651466046039301
:1042900009F0B2FD039B0146184609F0B7FE01463E
:1042A000504609F0ABFD1FFA89F9B9F1620F0146DA
:1042B00020616760A0600ED9069809F0A7FE0AF099
:1042C0006BF8484BB0F5FA6FA8BF4FF4FA6098420C
:1042D000B8BF184600E00020834440F6B8330FFA18
:1042E0008BFB9B45A8BF9B463F4B0A229B45B8BF13
:1042F0009B466A433D4B54F8141B25F803B03C4BD6
:104300000235042DD1503FF469AB4FE7324BD5F85D
:1043100070B11F68B5F8A461B7F808904FEA5B0365
:10432000994528BF994633B2994502DC1FFA89F9AD
:104330000BE03049D5F8500109F068FE0AF02CF87E
:1043400030441FFA80F9A5F8A491D8F87451D8F830
:10435000A861AE1B3046FEF78BFD0028D8BF404257
:1043600041F293139842CCBF00200120002847D08F
:10437000304609F0F7FD204909F048FE0DF0DEF85F
:104380000646584609F0EAFD0146304609F03EFE71
:104390000AF002F880B240F6B83203B29342A8BFE6
:1043A0001346114AA8F8AC019342ACBFEB18AB1806
:1043B00048F6A042934203DDA3F50C43A03B04E082
:1043C000002BBCBF03F50C43A033C8F8B03119E093
:1043D000182D4454FB21194040050020E80E002010
:1043E0000000F03F30F8FFFF48F4FFFF48050020D1
:1043F000100F00200000C842D3023739C810002037
:10440000C8F8B051D4F8B021C2F50C50283004924D
:1044100009F0A8FDA44909F0F9FD05460CF0ECFFF0
:104420000F9028460DF08AF8D4F8C051D4F8B43172
:10443000D4F8B8E10E9005F100400793CDF828E0DC
:1044400009F0AAFF0590284609F0A6FFD4F850818C
:10445000D4F8BC410B900994944C0025484609F0CF
:1044600081FD0EAB53F8151009F0D0FDDFF874A2F2
:1044700006463AF9050009F075FD0146304609F097
:10448000BBFC09F089FF8A4B06B2B6F57A7FA8BF5C
:104490004FF47A769E42B8BF1E46B0B20AF13C0A8B
:1044A00025F80A0000B209F05DFD0799824609F07F
:1044B000ADFD09F071FF80B208900A99504609F0ED
:1044C000A5FD414609F0A2FD216809F097FC09F01D
:1044D00063FF0599884204DB0B9A9042A8BF1046FF
:1044E00000E0059809F03EFD8246206060681434C3
:1044F000301A09F037FD414609F03CFE54F80C3CF7
:1045000044F8040C8446B8780693CDF80CC009F042
:1045100025FD09F06FF962A3D3E9002309F0BEF984
:1045200002460B460020634909F0E2FA09F010FC4C
:10453000414609F063FC0146404609F01BFEDDF8E8
:104540000CC0034606996046039309F055FC039B93
:104550000146184609F05AFD0146069809F04EFC3E
:1045600044F8106C014644F8040C44F80C0C09980B
:1045700009F04CFD09F010FF089E0644504609F072
:104580000BFF304440F6B83300B29842A8BF18463B
:10459000494B0A229842B8BF18466A43474BE85233
:1045A000474B0235042D42F803A07FF457AF3B7907
:1045B0002BB104986422434B90FBF2F21A803B88A3
:1045C000414C9B450ED9D4F8A831D4F87401C01AD7
:1045D000FEF74EFC42F210730028B8BF40429842EA
:1045E0007FF7FCA9394B01221A70B4F8FC20354B37
:1045F0001A80FFF7F3B9364A116890460F7817B161
:10460000012F0DD0AFE0012B00F2AD806278314B6D
:1046100003EB0213304A59681068FDF73FFF9FE033
:104620002D4E3068FDF735FFB146002800F09B8025
:1046300023782A4D022B29D0032B55D0012B40F093
:104640009280274B1F686B69FB1A632B40F28B80AB
:104650002B69042B18D8DFF87C80306808EB031333
:104660005968FDF71BFF6B78366808EB03139D68EC
:1046700015F8011B19B13046FDF72CFFF8E7236947
:104680006761013323616EE002206AE06A78114BB2
:10469000306803EB02135968FDF700FF032060E068
:1046A000182D4454FB211940D3023739100F002034
:1046B00018FCFFFF0000F03F48F4FFFF4805002012
:1046C000E80E00202E050020500F002030120020A0
:1046D000200B002090380108240B0020040B002040
:1046E000141E0020B41000202B7E03B92F76227EEA
:1046F000354B012A14D11A697B2A0DD8D8F800301D
:104700009B782BB9314BD9F80000995CFDF7E2FE9C
:1047100023690133236103E000221A6102221A7621
:10472000227E294B022A18D11A690F2A13D8D8F8E9
:104730000030997859B95B78244903EB03130B4493
:104740001A44D9F8000092F87D10FDF7C3FE2369E2
:104750000133236101E003221A76237E022B02D962
:10476000042005F0F9FB0023636029E0636805225B
:1047700001336360637801200133DBB2B3FBF2F2F3
:1047800002EB82029B1A6370114B00221B68A3602C
:10479000104B1A70104B1A7822F002021A700DE0BA
:1047A0000B4B1A68A368D21A40F6C4139A4207D971
:1047B0000A4B05201A6822F020021A6005F0CCFB93
:1047C00011B0BDE8F08F00BF040B00200E3E0108C1
:1047D000141E0020880500206A02002034020020F8
:1047E000644B2DE9F04FB3F90640634B85B019686F
:1047F000B1F858309C420FDBB4F5FA6F91F856705F
:1048000007DAE21A5743A3F5FA6397FBF3F7643725
:1048100003E0C7F1640700E06427584B0020B3F8B9
:10482000182193F9EC3002925B429BB203930D4640
:104830000246504B029E30F90380C6EB080303F298
:10484000F31E40F2E636B64503D8002BB8BF5B42F4
:1048500001E04FF4FA73022A494E31D091F865E134
:10486000BEF1000F04D07345CCBFCEEB0303002391
:104870004FF0640EDFF810A193FBFEFC6FF0630BAA
:104880003AF81C900BFB0C3B0CF1010C3AF91CA004
:104890000FFA89FCCCEB0A0C0CFB0BFC9CFBFEFC1E
:1048A000E14491F854C026F8009003FB0CFC354B12
:1048B0009CFBF3F373449BB27B4393FBFEFE1BE034
:1048C00091F866E1BEF1000F04D07345CCBFCEEB8A
:1048D00003030023DDF80CC003FB0CFEA6F804E084
:1048E00091F855E0002BB8BF5B4203FB0EFE254B51
:1048F0009EFBF3FE0EF1640E8B1893F80490DFF824
:104900008CC00EFB09F9642399FBF3F902F80C90B3
:1049100095F80EA00CF103090EFB0AFA9AFBF3FAC4
:1049200002F809A095F818900CF1060C0EFB09FE90
:104930009EFBF3F302F80C30029B984506DA104B0D
:1049400030F803E0CEF1000E20F803E00132032A34
:1049500000F1020005F101057FF46BAF074FB7F8D6
:104960001A319C4214DBB4F5FA6FA8BF4FF4FA6415
:104970000FE000BFCA06002088030020181E002098
:104980004A0200200CFEFFFF181100202611002013
:104990001C46E41A4FF47A725443C3F5FA63B4FB2D
:1049A000F3F36420A64C93FBF0F204EB42016FF0AA
:1049B000630E0EFB0233098B04EB4202B2F91AE0DC
:1049C0000AB2C2EB0E02534393FBF0F09D4B01443D
:1049D0001A889D4D5006F1803ED59C4B1888238E39
:1049E000C01A00B208F0F4FE93A3D3E9002308F044
:1049F00055FF09F0ADF906460CF0FEFC8046304646
:104A00000CF09CFD0646B5F9020009F0ABFA8146B0
:104A1000B5F9000009F0A6FA4146824609F0F6FA17
:104A200031468346484609F0F1FA0146584609F0F6
:104A3000E3F909F0B1FC41462880484609F0E6FA5E
:104A400031468046504609F0E1FA0146404609F0F9
:104A5000D5F909F0A1FC6880BA6840F6020313405A
:104A6000002B53D07A4B06211D88636B1D4494F8AC
:104A7000383065630133DBB2B3FBF1F084F83830D2
:104A800001FB103313F0FF0F40D1910706D505F05D
:104A9000CDF803F0EDFC6A4B83F83900BB681A05CA
:104AA00032D56C4BE16B5A7B6B4B33F81200082309
:104AB00091FBF3F280B28A1A0244E26392FBF3F2B2
:104AC00092B240F6E4435A43644B40F6FF71B2FBA6
:104AD000F1F219684FF47A73C8888988121A5A4318
:104AE00092FBF1F255435E4995FBF3F30A60D4E97A
:104AF0001001C01841EBE371C4E910010023594AC9
:104B000009F090FC584B18600023636357494C4AE6
:104B10000B6894F8396013F4805318BF012382F8AE
:104B20004830BB68894613F4807F514D2CD0DFF8A4
:104B300054812878D8F80030C0F380001B685B6887
:104B4000984760B1012384F84930D8F800301B68D9
:104B5000DB68984718B13A4B022283F84920D8F80D
:104B600000301B689B68984728B12B785B075CBFB7
:104B7000022384F84930D8F800301B689B699847B5
:104B800010B1002384F849303A4B1A6890060DD5CD
:104B9000D9F8003013F4C06F05D0374B1B78990754
:104BA00001D4012300E0002384F84A3094F849201E
:104BB000234B022A02D14C204E211CE0012A06D1AF
:104BC00053204D214C220B4605F002FA2AE093F8BF
:104BD0004A20012A03D1532001464E2206E093F8D1
:104BE0004820012A04D15320014602464D23EBE719
:104BF00026B153204D210A464423E5E711490A888E
:104C0000120603D553204D210246DCE71B4A1278D9
:104C10001AB1192005F0AEF904E0304683F84B6074
:104C2000FDF72AFC2B7858072ED5154B08225A6120
:104C300085E000BFAFF30080399D52A246DF913F6F
:104C4000181100203C0200204A02002084040020A9
:104C5000B00400201607002026070020640E002064
:104C60007C050020407E05008005002038020020E1
:104C7000B6250020340200206A0200203A040020F9
:104C8000000C0140E00A0020D9F80020D10703D42D
:104C9000B34943F001030B70B24E336813F00203C3
:104CA00002D0B1490988A1B9B049098801B12BB92D
:104CB000AF4B1B88003318BF012300E0012343B131
:104CC000AC4BD96881F00801D9602B7823F001033F
:104CD0002B70A94B1B781E0703D42B7823F00103FC
:104CE0002B70D00203D52B7823F001032B702B7887
:104CF000A24A13F0010F05D00023E3649D4B082165
:104D000019610BE0E16C136841B99D4903F5F42387
:104D100003F59073CB64974B08215961E36C1268DB
:104D20006BB1D21A002A0ADB924A03F5F423D16848
:104D300003F5907381F00801D160914AD364914BDF
:104D40001B780BB107F08CFF8F4B1B7813B102F06F
:104D50009FFCE5E3012002F09DFF002800F0E083C6
:104D6000DFF8488298F84A30012B40F0D383874A15
:104D7000874BD8F80010C2F8008019609146844A29
:104D80001068FDF795FB002800F0BE83804B186883
:104D9000FDF789FBD9F8003093F84820DAB9B0F173
:104DA00024014A424A4183F84820002AE7D12B785F
:104DB0005B07E4D4232802D102F06AFCDFE7D4F8D1
:104DC000E8301B7D8342DAD1724A734B1A60734A12
:104DD000734BDA60D3E7012A04D14D2814BF0022B7
:104DE00002228EE3022A04D13C2814BF00220322AF
:104DF00087E3032A0AD140284FF0000200F28183A2
:104E00001A71DA715871987104227AE3042A06D172
:104E10009A7983F8490050409871052271E3052A78
:104E2000ADD159791A799142997906D94140997150
:104E3000511C197113441872A1E7814240F05E833E
:104E400093F8490005F0D0F9002840F05283D9F8D2
:104E5000003093F84930C92B00F04C8247D82D2BF5
:104E600000F0E08224D8252B00F0BC8206D8212B4C
:104E700000F01082232B00F0708172E3292B00F0E8
:104E8000BC822B2B00F0C682272B40F06A830020C7
:104E900003F050FB03F00CFB424EA6F8E60003F0D3
:104EA00007FBA6F8E80003F003FBA6F8EA001DE301
:104EB000332B00F0CB820CD82F2B00F0D982312B72
:104EC00040F04F83374EC02003F034FB06F1800AD8
:104ED000E4E2442B00F00483C82B00F09A80412BBD
:104EE00040F03F83002003F025FB0026B6E2D12BE3
:104EF00000F03D8262D8CD2B00F0E58158D8CA2B56
:104F000000F09F80CC2B40F02C83274ED6F800A0D9
:104F100003F0C4FA8AF85000D6F800A003F0BEFAF5
:104F20008AF85100D6F800A003F0B8FA8AF85400C5
:104F3000D6F800A003F0B2FA8AF85500D6F800A01F
:104F400003F0ACFA8AF85600D6F800A003F0A6FAEF
:104F50008AF85200366803F0A1FA86F85300C5E2D9
:104F6000B625002034020020B82500200C040020C3
:104F7000AC250020000C01406A020020A42500207E
:104F80001811002058050020B02500201006002030
:104F900014060020EFBEADDEF04F00200400FA053D
:104FA00000ED00E0181E002088030020681100209A
:104FB000CF2B00F0FC8040F28F8179E1D42B00F000
:104FC000318109D8D22B11D0D32B40F0CA8203F003
:104FD0006FFACC4B188089E2EF2B25D0FA2B00F02A
:104FE0008581D62B40F0BD82002613E12B7803F09B
:104FF000040303F0FF06002B40F0788203F04EFA22
:10500000C14B022883F86C0740F2588183F86C6723
:1050100054E1002603F04CFABC4B98530236102E94
:10502000F8D10122BA4B5FE1BA4ED6F800A003F0E6
:105030003FFAAAF85E00366803F03AFAA6F85C0078
:1050400054E2B44E33681B78022B69D10026DFF896
:10505000C4A2DAF800B003F021FA06F108020BEB63
:10506000820B08F07BFFAC4909F084F8CBF8040010
:10507000DAF800B003F012FA06F10A020BEB820B29
:1050800008F06CFFA54909F075F8CBF80800DAF8CC
:1050900000B003F003FA06F10E020BEB820B08F0EE
:1050A0005DFF9F4909F066F80136032ECBF8040036
:1050B000CDD1072E1BD1DFF85CB2DBF800200092C7
:1050C00003F0ECF908F04AFF934909F053F8009A0D
:1050D000DBF800B0906403F0E1F908F03FFF8E497F
:1050E00009F048F8CBF84C0003F0D8F914E0DAF8EE
:1050F00000B003F0D3F90BEB06031871DAF800B037
:1051000003F0CCF90BEB06039873DAF800B003F068
:10511000C5F90BEB0603187601360A2EC9D1E5E175
:105120004FF0000AD6F800B003F0B8F90BEB0A0311
:105130001871D6F800B003F0B1F90BEB0A039873BD
:10514000D6F800B003F0AAF90BEB0A030AF1010A42
:10515000BAF10A0F1876E5D1C8E103F09FF92728C4
:1051600020D86C4B00F11E0A1B6803EB8A0A03F07F
:1051700095F96C4B0AF1050603F58A72197A81429A
:1051800003D00C339342F9D10CE01B788AF8053038
:1051900003F084F9707003F081F9B07003F07EF9C8
:1051A000F070A3E10120002103F0A6F99EE103F0D5
:1051B0007FF903F07DF9544EDFF858A1A6F8D0002E
:1051C00003F076F9A6F8D20003F072F9DAF800B02D
:1051D000A6F8D40003F06CF9ABF8B00103F068F95D
:1051E00003F070F9DAF800A003F062F900EB800038
:1051F0004000AAF85A0003F051F986F8040103F0C0
:105200004DF986F8060103F049F986F8050103F027
:1052100045F96BE103F04CF9434B98530236102EDD
:10522000F8D163E10026DFF8ECA0DAF80020009264
:1052300003F03EF9009A06F12D034FEAC30B5A44DE
:10524000D080DAF80020009203F032F9009A5A4434
:10525000108103F02DF9072804D8DAF8002002EBBA
:105260000B035873A0F57A739BB2B3F57A7F05D818
:10527000DAF8003003EBC603A3F87201DAF800A0F5
:1052800003F00CF90AEBC6030136082E83F874010B
:10529000C9D12BE100261F4BD3F800A003F0FEF884
:1052A0000AEBC6030136082E83F87501F3D11DE120
:1052B0002B785E0700F11A8102F0F2FA05F0D6FFB2
:1052C00006F00CFD12E12B78580700F10F81174B07
:1052D0004FF4C8721A8009E12B78590700F1068152
:1052E000134B1A7842F004021A70FFE02B785A0729
:1052F000E4D536E103F0D2F80D4B1A78D0B142F084
:10530000020219E02E050020181E0020CA06002007
:105310002402002088030020000020410000C84231
:1053200000007A44E03E0108041200200C04002032
:105330006A02002022F002021A7003F0AFF88D4BCF
:105340008D4E187003F0BEF8306003F0BBF870604B
:1053500003F0AEF8894B188003F0AAF8884B188048
:1053600094F8043143F0020384F80431BEE003F002
:1053700095F8009003F0A6F8019003F0A3F8824698
:1053800003F0A0F8064603F093F803F091F803F059
:1053900085F89DE80C009AB97A49C4F808310B8861
:1053A000C4F80CA123F010030B80774B1A7842F05D
:1053B00001021A70002E00F09980744B1E6095E077
:1053C000102A40F09380C4F81031C4F814A10EB133
:1053D0006E4B1E606E480223011D84F8183102F0E6
:1053E00013FC83E0002003F0A5F80023BB6003F06A
:1053F00069F8BB681843B86078E0002003F09AF8B9
:1054000003F056F8634EA6F8080103F051F8A6F829
:105410000A016BE0002003F08DF803F03FF85D4BCC
:10542000587163E0002003F085F803F037F887F83F
:10543000160103F03DF8A7F81C0103F039F8A7F8AE
:10544000180103F035F8A7F81A014FE0002003F027
:1054500071F803F023F887F81E0147E003F01EF807
:105460004C4B33440136082E83F80E01F6D13DE053
:10547000002003F05FF8474E06F1400A03F018F8E9
:10548000A6F8D40103F00AF886F8D60103F006F86E
:10549000043686F8D3015645F0D127E003F008F82A
:1054A00000F03F00A6F8560103F002F8B6F85621C6
:1054B000800100F4F8631343A6F8563102F0EEFFC2
:1054C000000186F8540102F0E9FF96F8543100F02B
:1054D0000F00184386F8540104365645DED105E026
:1054E000002003F027F8012384F81931002003F08D
:1054F00021F8D9F80030987902F0EDFFD9F80030A2
:10550000002283F848203AE494F8193113B1224A72
:10551000224BDA60224B08F14C0898457FF422AC0C
:10552000204E33689B0616D51F4BD4F81C211B68F0
:105530009A1A002A0FDB0F4A1278042A0BD91B4A49
:1055400003F5123303F5F873C2F81C31184BDA680F
:1055500082F01002DA60174B9B683BB116489847FF
:1055600004E00120002102F0C7FFC2E705B0BDE85A
:10557000F08F00BF880500208C05002086050020E4
:10558000840500203C0200206A0200204002002026
:1055900028120020181E00200400FA0500ED00E08B
:1055A0000012002034020020A42500201811002041
:1055B000000C01408C03002038120020AFF3008063
:1055C0002DE9F04F064689B00F4615469B462978CF
:1055D000002900F0BB80252902D001353046B3E018
:1055E0006C78302C03D002354FF0000903E0AC7822
:1055F0004FF001090335A4F13003DBB2092B4FF062
:1056000000081CD8A4F13003DAB2092A07D80A2B03
:1056100015DC0A2202FB083815F8014BF2E7A4F169
:105620006103DBB2052B02D8A4F15703EFE7A4F125
:105630004103DBB2052B02D8A4F13703E7E76C2C5A
:1056400003BF2C78012201350022632C66D006D8D6
:10565000252C77D0582C3FD0002C77D0B7E7732C6F
:1056600063D002D8642C11D0B1E7752C02D0782C0D
:1056700032D0ACE70BF1040A05ACDBF800000A21DC
:1056800012B10022234613E0234620E00BF1040A66
:1056900005ACDBF8000072B1002806DA2D238DF886
:1056A000143040420DF1150300E023460A21002288
:1056B000FDF7F0F90DE0002806DA2D238DF81430FF
:1056C00040420DF1150300E023460A210022FDF7B8
:1056D000B9F9D34600941AE00BF1040303930DF1DA
:1056E000140ADBF80000102132B1583C62426241DA
:1056F0005346FDF7CFF906E0B4F158035A425A4138
:105700005346FDF79FF9DDF80CB0CDF800A0304608
:10571000394642464B46FDF7F9F958E730469BF8C3
:1057200000100BF10404B8470AE0DBF80030304603
:1057300000933946424600230BF10404FDF7E6F9D5
:10574000A34644E730462146B84740E709B0BDE8E4
:10575000F08F0FB407B50A4904AB0868094953F83C
:10576000042B09680193FFF72BFF074B1868FCF720
:1057700090FE0028F9D003B05DF804EB04B0704748
:105780000C070020080700207C130020F8B507460E
:105790000BF0ECFB044638B9194B1A485A791A4BEE
:1057A000013A53F8221028E03846184922460BF0F7
:1057B000E5FB60B9164802F023FF164C54F8041FAD
:1057C00019B11548FFF7C5FFF8E7144805E00025B3
:1057D0000D4B53F8256026B91148BDE8F84002F09A
:1057E0000FBF3846314622460BF0C8FB0135002872
:1057F000EED1034B0B485D713146BDE8F840A8E798
:10580000181E002055530108C0430108655D0108BA
:1058100069530108BC4301087C530108285601085C
:10582000805301089553010870B504460BF09EFBA8
:1058300008B91E482EE020461D490BF069FC0024E3
:105840002646254678B12CB1012C06D10BF03AFC46
:10585000064602E00BF036FC0546154900200134EF
:105860000BF056FCEEE70B2D04D9BDE87040114853
:105870000C216EE7012C07DC0F4B294633F915206C
:105880000E48BDE8704064E7A6F57A73B3F57A7FF9
:1058900003D90B48BDE870405BE70A482946324609
:1058A000FFF757FF044B23F8156070BDA75301089D
:1058B000FD560108E15301080412002007540108B5
:1058C0001F540108415401082DE9F74304460BF029
:1058D0004DFBC0B290B9304C054694F8D711B4F8DE
:1058E000D42194F8D6312D48009129460135FFF78F
:1058F00030FF102D04F10404EFD14AE020460BF0F4
:10590000E1FB0F28054636DC204620210BF021FB69
:10591000234FEDB2D7F80090441CAD00002620467E
:105920000BF0D0FB5FFA86F8B8F1010F83B208D014
:10593000B8F1020F0BD0B3F5B47F1ED23A685353BF
:105940000AE0FF2B19D83B682B44987004E0FF2B2A
:1059500013D83B682B44D87020462C210BF0F9FA61
:10596000044608B1441C02E0B8F1020F05D101362B
:10597000032ED4D10DE00B4806E009EB0500002111
:1059800004220BF0B2FA0848102103B0BDE8F0433E
:10599000DFE603B0BDE8F083181E00205A5401086A
:1059A000280B00206E54010892540108F0B5002322
:1059B0001946CEB200220C2505FB02F70D48D4B2E1
:1059C0003F5CB74203D00132042AF4D10BE0FF2C34
:1059D00009D0094A05FB04001A4492F82C21074C0F
:1059E0000133A25C02720131052901D0032BE0D9F9
:1059F000F0BD00BF54000020181E00204C530108C9
:105A000010B54F2002F026FE0E4C84F82C01202009
:105A100002F020FE84F82D01002002F01BFE4FF45E
:105A2000E133C4F83031C4F83431C4F83831C4F843
:105A30003C31522384F82E0184F82F0184F8403140
:105A400010BD00BF181E002070B50546441E14F896
:105A5000011F61B1064E30460BF07BFA0028F6D0EC
:105A6000861B0448631B304480F80E31EFE770BD9D
:105A7000275B0108181E00207FB504460BF076FA5C
:105A8000082824D100231F49E25C096811444978A1
:105A900001F00301022908BF203AE2540133082B28
:105AA000F1D10025665D184831460BF052FA28B155
:105AB0000135601931460BF04CFA18B1134802F069
:105AC0009FFD1CE0082DEDD12046FFF7BDFF1048DB
:105AD00002F096FD00230F4A04A91A4492F80E2101
