:020000040800F2
:100000000050002039100108E5100108F9D200085D
:10001000E5100108E5100108E510010800000000E6
:10002000000000000000000000000000E5100108D2
:10003000E510010800000000E5100108E9D2000801
:10004000E5100108E5100108E5100108E5100108B8
:10005000E5100108E5100108E510010831D200089B
:10006000E5100108E5100108E5100108E510010898
:10007000E5100108E5100108F5D10008E5100108B8
:1000800035D20008E5100108E5100108E510010867
:10009000E5100108E5100108E51001082DD200085F
:1000A000E5100108E5100108E510010841D100083C
:1000B00039D100082DD1000821D1000871D20008E3
:1000C00069D200086DD2000865D20008E510010869
:1000D000E5100108B9D100084DD10008E51001086C
:1000E00075D20008E5100108E510010800000000C5
:1000F0000000000000000000000000000000000000
:0C01000000000000000000005FF808F1A3
:100110002DE9F04F744B754DA1B02B6000236B603F
:1001200008F0D7FF18B906F005FE08F0F5FF0CF04F
:10013000DBFC00230A936E4C0B930C934FF4E013FB
:100140000D9323686B4943F480338A7B2360A36952
:1001500043F01003A361236803F400330B930A9B5D
:1001600001330A930B9B1BB90A9BB3F5A06FF2D125
:1001700021685F4B11F4003101D0022315E01868AB
:1001800040F0010018600A91236803F002030B930A
:100190000A9B01330A930B9B1BB90A9BB3F5A06F13
:1001A000F2D12368990739D501230C93524B534F51
:1001B000196841F010011960196821F003011960F4
:1001C000196841F0020119606368636063686360E5
:1001D000636843F480636360494B1968043B21F012
:1001E0007041596047493960616821F47C11616050
:1001F000596841F000415960D96821F40041D96043
:100200009B681B0449BF404B4FF4E0133B604FF425
:1002100080130D930C9B012B01D117E0FEE7022BFD
:1002200018D16AB10D9BB3F5801F02D14FF4A01312
:1002300005E00D9BB3F5E01F02D14FF400130D93C1
:1002400062680D9B134343F4803302E0636843F418
:1002500060136360236843F0807323602268244B3B
:100260009601FBD55A6822F003025A605A6842F0A0
:1002700002025A6063681E4A03F00C03082B0893BD
:10028000F8D15168214B01F00C01042903D0082951
:1002900004D01C4A00E03A681A6011E051685068C6
:1002A000C1F38341C00301F1020101D4184A05E002
:1002B000526812F4003F3A6818BF5208514319605F
:1002C0006268DFF85080C2F303123A4492F804B037
:1002D0001A6822FA0BFB0B4AC3F800B03B68934242
:1002E0001AD101231CE000BF9972000830070020DA
:1002F00000100240101E00200020024014000020C8
:100300000410014000127A00001BB700A400002076
:1003100000093D00B32500209C4A934202D10223EC
:1003200088F800309A4B9B4A20AEDA60A269DFF869
:10033000909242F00102A261626A4FF0000A42F01C
:1003400080726262A269944842F01C02A2614FF678
:10035000FF7226F82C2D314603938DF856A002F03B
:10036000B5FD4846314602F0B1FD8C48314602F0F9
:10037000ADFD8B4A3046516841F00071516005F087
:1003800035FE159A8749039BB2FBF1F24FF47A715F
:10039000AA60BBFBF1FB844A0BF1FF315160F021F5
:1003A00083F823100723C2F808A06420136007F025
:1003B000D8FC7E4B0FCB86E80F00A369159843F05D
:1003C0000803A361A36916A943F00803A3610823E6
:1003D000C9F810301023C9F8103002F077FD1798D3
:1003E00018A902F073FD98F800304FF48052012BE9
:1003F0008CBF102314238DF856304FF002038DF874
:100400005730A369ADF8542043F00403A3618CBFB7
:100410004FF00109D1466048314602F057FD644B68
:10042000B9F1000F01D0634A00E0634A00201A606E
:1004300007F0A1FC614B93E80300A36986E8030081
:1004400043F0080316A9A361159802F03FFD0CF0D4
:100450002DF89F238DF84030322000238DF8413055
:100460008DF842308DF8433007F07BFC544B4FF44D
:1004700080525A61A3F5544310AA9B8905204FF47A
:100480007A7331469146013823D01AB192F800E0D0
:10049000013208E04FF0FF0E05E003F1FF3C1FFAC8
:1004A0008CFC93B16346DFF828C1BCF808A01AF0B1
:1004B000020FF2D0ACF80CE0DFF814E1BEF808C08F
:1004C0001CF0010F00F077817EE1AB8901339BB214
:1004D000AB81DFF8ECA04FF4805BCAF810B09DF858
:1004E00056209DF85530120242EA03429DF85730DB
:1004F0001A43344B9A4212D0CAF814B0F5200BF0CC
:10050000B3FCFF200BF0B0FC7028CAF810B006D185
:1005100098F80030022B02D12B4B03221A7098F866
:1005200000A0BAF1030F02D001200BF0F3FA274923
:10053000DFF8A080D1F808B008F10E000BF40063DA
:10054000069310231A460021039310F0DEFC039B50
:100550000021ADF84030042302228DF84310AB7324
:10056000072101231BF4004F8DF842202B7469747E
:1005700032D0122088F8123088F8133088F81430FE
:1005800088F81510ADF84000904626E0001BB70033
:1005900000ED00E00005FA050008014000100140F0
:1005A0000000014040420F0010E000E03C3701082D
:1005B000B825002071720008857200084C370108C8
:1005C000000C014015202000B3250020101E002043
:1005D00000380040300700209846BAF1010F11D9C9
:1005E000BDF84030012243F02003ADF84030052330
:1005F000AB752A7608F10103072285F817806A7621
:100600005FFA83F88348494606F0F4FF069B93B1EE
:10061000022381484946ADF8403006F0EBFF09233C
:100620000122AB762A7708F10103072285F81B80A7
:100630006A775FFA83F86369784843F0010363617E
:10064000A369764D43F40073A36105F057FC744B26
:1006500000241593734BB8F1010F16930CBF23467A
:1006600080231A934FF480731B934FF480631C9381
:10067000202331461D9328464FF400531E931794B0
:10068000CDF8608019941F9405F01AFC2B68B8F11E
:10069000010F43F001032B60634B98BF00215A68A0
:1006A00088BF012122F4702222F4807242EA0122E2
:1006B0005A6099685D4A20460A4042F4602242F03E
:1006C00002029A60D96A08F1FF3221F47001D2B2B5
:1006D00041EA0252DA620123554A11188C78002C43
:1006E00051D0825C5C1C092ACE78E4B24E4910D904
:1006F000A2F10A0505EB45054FF0070E0EFA05FEBF
:10070000AE40D1F80CC02CEA0E0E4EEA0605CD60C4
:100710000DE002EB42054FF0070E0EFA05FEAE406B
:10072000D1F810C02CEA0E0E4EEA06050D61062B1C
:100730003D490CD8013B03EB83031F259D409A40A4
:100740004E6B26EA050545EA02034B631CE00C2BC1
:100750000CD8073B03EB83031F259D409A400E6B8B
:1007600026EA050545EA02030B630DE00D3B03EBAA
:1007700083031F259D409A40CE6A26EA050545EA77
:100780000203CB6200E01C460430102801D023464F
:10079000A2E7254B9A6842F480729A609A6842F008
:1007A00001029A609A6842F008029A6099681E4AAB
:1007B000090714D5FAE703F1FF3E1FFA8EFE002B5E
:1007C0003FF483AE734677E6BEF80CE01FFA8EFE68
:1007D00000293FF458AE81F800E0013153E69368F8
:1007E00043F004039360104A936813F00403FAD1B2
:1007F000916841F4A00191600E4AB2F8E600E0B9B8
:10080000B2F9E830C3B9B2F9EA30D3F1010338BF25
:10081000002312E000080140000C014008000240E3
:100820004C2401404E07002000240140FDF7F1FF59
:100830003E070020101E0020034613F0010340F085
:100840008E803B7500B20CF0BFFEB7A3D3E9002346
:100850000CF020FF0DF078F9B5490646B1F9E80033
:100860000CF0B2FEB0A3D3E900230CF013FF0DF09F
:100870006BF9AF4A0546B2F9EA000CF0A5FEAAA34F
:10088000D3E900230CF006FF0DF05EF90446304674
:1008900010F0C4FD0746304610F062FE8046284640
:1008A00010F0BCFD0646284610F05AFE05462046CC
:1008B00010F0B4FD8246204610F052FE39468146C3
:1008C00050460DF09FFA3946834648460DF09AFA95
:1008D0005146069040460DF095FA4946079040462D
:1008E0000DF090FA3146099050460DF08BFA914C7C
:1008F0004946A06206F100400DF084FA2946E06204
:10090000256307980DF07EFA014606980DF072F9FE
:100910002946606309980DF075FA014658460DF0B6
:1009200067F93146A06308F100400DF06BFA2946E3
:10093000E06358460DF066FA014609980DF058F943
:100940002946206406980DF05DFA014607980DF0DF
:1009500051F93946606430460DF054FAA064744988
:100960008B689B0363D5142007F0FBF9AE200AF0D7
:10097000A2FEA4200AF09FFE322007F0F2F9202008
:100980000AF099FE02200AF096FEA1200AF093FEDA
:10099000C8200AF090FEA6200AF08DFE81200AF001
:1009A0008AFEAF200AF087FE142007F0DAF9AF20A4
:1009B0000AF081FE142007F0D4F9A6200AF07BFE8D
:1009C000AE200AF078FE20200AF075FE00200AF022
:1009D00072FEB0200AF06FFE40200AF06CFE00208C
:1009E0000AF069FE10200AF066FE4FF48064013CB4
:1009F0000020A4B20AF0ECFD002CF8D181200AF00E
:100A00005AFEC8200AF057FE4A4DAF200AF053FEA6
:100A1000494B21460C2205F15000EB6410F075FAA9
:100A20000AF059FE07F08EF8444B0344AB65444985
:100A3000444B09681A68B1F85AB04349002008705D
:100A400042F00E0241481A609846394A404B0778F6
:100A5000B2F8EE9092F8ED609246364D0A46A3F158
:100A60000C01012F98BF0B46EB6505920BF03CF88B
:100A7000059A0690002800F01983364B3649B9F1E3
:100A8000BB0F19603549364C59603649D96001D9D8
:100A9000012312E0B9F1610F01D902230DE0B9F190
:100AA000290F01D9032308E0B9F1130F01D9042359
:100AB00003E0B9F1090F04D905236375012313700D
:100AC00010E00623F9E7D8F8003023F00203C8F855
:100AD0000030254B1B78002B40F01681002E00F0D3
:100AE0000D811E46DFF88490002389F800301A46F5
:100AF000092EEED801A353F826F000BF710B0008B1
:100B0000710B0008BF0B0008750C0008BD0C000835
:100B1000D30A0008D30A0008D30A0008D30A000841
:100B2000C70A0008AFF30080399D52A246DF913F0B
:100B3000101E0020300700201E1F0020404B4C00DC
:100B4000D403002034020020EE030020B32500204F
:100B500030370108D8030020758C0008A7B30008BF
:100B60001400002090C1793DB425002056040020D7
:100B7000012F28D84FF0000C20AB03F82C2D614634
:100B800053200122CDF810C00BF0C4F8DDF810C0DE
:100B9000B8B19DF85430E52B13D1864B864A06999F
:100BA0001A60864A85F860C05A6051B10423012258
:100BB00089F80030824B96421A7002D189E7012FE2
:100BC00001D8804B00E0804BDFF82092EB650AF003
:100BD0008BFF00284ED0062115AB68200A460BF08B
:100BE00099F89DF857309DF859C003F001035B0058
:100BF0000CF0010C43EA8C0C9DF8553003F0010316
:100C00005CEA030C08D0BCF1010F01D100231AE00B
:100C1000BCF1020F0FD115E010AB68200C210122AE
:100C2000CDF810C00BF076F89DF84030DDF810C01C
:100C300013F00F0301D1052039E2042B02D189F80A
:100C400061C002E0012389F861305A4B5F4A1A60A3
:100C50005F4A5A6095F86120002A14BF6E226F2205
:100C60001A72574B02221A705A4B0122022E1A7026
:100C70003FF42FAF012F21D8002220AB03F82C2DF9
:100C80001C200D2101220BF045F8B8B19DF854301D
:100C90002A2B01D01A2B11D1464A4F4985F86230D0
:100CA00011604E495160069A42B14A4B02221A70B5
:100CB0000322434B96421A703FF40BAF002120AB46
:100CC00003F82C1D182001220BF024F800283FF413
:100CD00000AF9DF85430FB2B7FF4FBAE354B404A00
:100CE0001A60404A5A60069B002B3FF4F2AE344B28
:100CF00004221A70374B01221A70EAE6D8F8003045
:100D000023F00203C8F80030012F05D10BF0D0F812
:100D1000354B4FF400525A610A2007F022F8772031
:100D2000A021012210AB0AF0F5FF10B94FF0000925
:100D300088E01E21012277200AF004FC4FF42F6086
:100D400007F004F80026A6F160010027C9B20222CC
:100D500015AB77208DF854708DF855700AF0DAFFD6
:100D60009DF855309DF8541043EA01211F4B03F1C3
:100D70006402B1520236102EE5D1B3F872E00121BF
:100D80000EF00F060EF47F4EA3F872E03A463B4693
:100D900022F001002844B0F86400002818BF0021A8
:100DA000D70703D5C0B24340082021E083EA1023CF
:100DB000FAE700BF440400201DBA000881B400080F
:100DC000B42500202437010830370108E18C0008E1
:100DD00069B3000856040020198D0008E5B3000827
:100DE000F9B900083DB400080010014030070020A8
:100DF0001F0448BF83F4C05301384FEA4303F7D1BF
:100E00000132102AC4D146EA0E0EA5F872E000297C
:100E10008CD1C3F303339E4288D1A64B42F21072A9
:100E20001A805A80A44ADDF818905A60A34A4946AD
:100E30009A60A34ADA60A34A1A61A34A5A61002958
:100E400040F0D78095F87430A04E002B40F0D18050
:100E50009F4F0BF02DF84FF4804510A9042338461E
:100E6000ADF840508DF842304FF4005802F02EF8A3
:100E7000984BC7F810805A6915A822F470625A611D
:100E80005A6942F400725A610823159501258DF8BC
:100E900059308DF858908DF85A5007F06DFB282383
:100EA0008DF83C300FA80F238DF83D308DF83E3083
:100EB0008DF83F5006F078FB142006F052FF2A46CA
:100EC00010AB7720D0210AF025FF9DF84030032297
:100ED000552B86F88F30A6F8982018BFC7F81480D5
:100EE00040F08280D1212A4610AB77200AF012FF11
:100EF0009DF84030AA2103F00F021B0986F89020CC
:100F000086F89130162215AB77200AF003FF9DF882
:100F100054209DF8553043EA0223A6F878309DF816
:100F200056209DF8573043EA0223A6F87A309DF800
:100F300058209DF8593043EA0223A6F87C309DF8EA
:100F40005A209DF85B3043EA0223A6F87E309DF8D4
:100F50005C209DF85D3043EA0223A6F880309DF8BE
:100F60005E209DF85F3043EA0223A6F882309DF8A8
:100F700060209DF8613043EA0223A6F884309DF892
:100F800062209DF8633043EA0223A6F886309DF87C
:100F900064209DF8653043EA0223A6F888309DF866
:100FA00066209DF8673043EA0223A6F88A309DF850
:100FB00068209DF8693043EA0223A6F88C303D4B47
:100FC00041F2707286F874501A8046F678125A8090
:100FD000414A06995A60414A9A60414ADA60414A58
:100FE0001A61414A5A6121B9404B1A6822F0040241
:100FF0001A603F4D95F8E2300BB13E4A137095F8F8
:10100000E3300BB13C4A137095F8E4300BB13B4A26
:101010001370364B1A68970702D5394B1B689847EF
:10102000384F0DF180083B689847002308F82C3DA5
:101030001E200A21012243460AF06CFE38B19DF8B9
:101040005430482B03D12D4B03221A7004E0274A59
:10105000136823F00803136024491C4E0B6813F037
:10106000080F1FD00FFA8BF24FF0640B92FBFBF9C5
:10107000484605920CF072FE059A03460BFB1920B8
:1010800000B203930CF06AFE1F490CF0BBFE039BF9
:10109000014618460CF0AEFD1C490CF0B3FEC6F834
:1010A0009C0035E00023C6F89C3031E0032006F0B8
:1010B000ADFE00BF88020020B9B90008C1B2000827
:1010C000B1B90008D1B2000825220008300700207D
:1010D0000010014000000140E5B9000831B30008EC
:1010E000C1B90008E1B200087D23000834020020E5
:1010F000101E0020EE03002056040020AB25002027
:1011000044040020D80300208988883C0000204146
:101110008D4B10225A6108221A614FF00A0BDFF83A
:1011200028921920D9F80C300BF1FF3B83F0100303
:10113000C9F80C30D9F80C3083F00803C9F80C302A
:1011400006F00FFE012006F016FE192006F009FE3B
:10115000002006F010FE1BF0FF0BE0D10823C9F8B9
:1011600010301023C9F81030784BDFF818921B6844
:1011700093F90C000CF028FA6FA3D3E900230CF0CC
:1011800089FA0CF0E1FC10F049F98346B9F8000047
:101190000CF0E4FD59460CF035FE10F075F96C4B7F
:1011A0001880B9F800000CF0D9FD014669480CF030
:1011B000DDFE69490CF0DAFE684B1860F8680CF047
:1011C00015FA5DA3D3E900230CF064FA5CA3D3E91C
:1011D00000230CF05FFA0CF0B7FC614B6A791860E1
:1011E000604B61491A70614B01EBC202C6F8A03036
:1011F00092F831205E4B1A60AA68960644BF01221D
:101200001A605C4A5C4E136813F0080F00F0FF8010
:101210004D4B10225A61594AB16912780027012AB0
:101220008CBF102008208CBF4FF480424FF48052B6
:1012300040EA01015248B161ADF840204FF002028E
:1012400098BF184610A98DF8432004228DF842203B
:1012500001F03CFE322006F084FD002111221E2008
:101260000AF070F9012160221E200AF06BF9642057
:1012700006F077FD40460AF0FDFBB9460A23BB465F
:10128000022101221E2003930AF05CF9322006F0AD
:1012900068FD40460AF0EEFBBDF95410BDF956005A
:1012A000BDF958208B448842B8BF0146174491428B
:1012B000B8BF0A4612F5805F8144039B09DD224ACC
:1012C000013BD16881F01001D160D9D14FF0010804
:1012D00001E04FF000081E20002112220AF032F92E
:1012E0000A23022101221E2003930AF02BF9322047
:1012F00006F037FD15A80AF0BDFBBDF95410BDF985
:101300005600BDF95820C1EB0B0B8842B8BF01460F
:10131000BF1A9142B8BF0A4612F5805FC0EB0909B7
:10132000039B31DD084A013BD16881F01001D16097
:10133000D7D12BE0AFF30080399D52A246DF913F19
:10134000000000A0F7C6B03E000C01409004002051
:10135000B40400200AE81C4100401C46A8030020F9
:101360008C0400208005002024370108201E002066
:101370007C0500203402002000100240B32500202C
:1013800000100140000000204FF00008B74B584605
:1013900003930CF0E3FC0146B5480CF0E7FD20F0A8
:1013A0000040A06148460CF0D9FC0146B0480CF062
:1013B000DDFD20F00040E06138460CF0CFFC014636
:1013C000AC480CF0D3FD20F00040206200217022D8
:1013D0001E200AF0B7F8012120221E200AF0B2F8E0
:1013E000022100221E200AF0ADF8642006F0B9FCAC
:1013F000039BB8F1000F04D14FF07E529A61DA617D
:101400001A629D4B10221A619C4B01221A70002116
:101410004FF4A0729A480FF078FDF36943F0070388
:10142000F361B36943F4006343F00C03B3610BF061
:10143000EFF810A8002114220FF067FD6B790E2B36
:1014400001D0082B02D101238DF84A3000248D4AA7
:101450000023A05CD75CD118874203D01033702BD7
:10146000F8D1002107F0A0FC83681B78012B04D081
:101470001034702CEBD1002300E0069B8DF8443033
:10148000DAF808308049C3F340028DF84520C3F3F1
:1014900080128DF846200968C3F340328DF8402051
:1014A000C3F3C03200318DF842207848C3F3C02224
:1014B00018BF01218DF84320C3F300428DF8472067
:1014C0008DF8481003F0010201688DF8412091F871
:1014D000B811BAF8E040C1F380018DF84910BAF8AC
:1014E000DE10ADF84E40D8044FF47A74ADF84C10CD
:1014F000ADF8504004D5664BB3F8DA30ADF8503053
:10150000B1F5FA7F84BF0023ADF85030B5F818313B
:1015100095F82011ADF852305E4B83F8E4110021AC
:1015200083F8E51183F8E6119DF84A1098460029E2
:1015300014BF0223002302B10133574A4FF0000BBE
:1015400002EB8303D3F85831CDF81CB00993099B03
:1015500033F80B704FF6FF739F42FAB20CD14D4C2B
:1015600094F8E53184F8E7314C4B1F78162F40F0A2
:1015700050814FF000083DE1DFF830919DF84410B4
:10158000130109EB030419B1911E012940F21A81DC
:101590009DF8471029B159F803104148814200F0E5
:1015A00011819DF8421011B1012A00F00B813F0A10
:1015B000022F05D19DF84010002908BF002703E045
:1015C000012F08BF9DF841709DF8481039B19DF872
:1015D0004A1021B9A2F10801012998BF04279DF8FA
:1015E000491031B19DF84A1019B9043A032A40F262
:1015F000D180012F5CD1FF22E17B88F82C2288F872
:101600002D22A2684FF0000A606888F830A2C8F85E
:101610003C42ADF854208DF85610022215A988F8E6
:10162000E8A1C8F8ECA1C8F8F0A1C8F8F4A1C8F87E
:1016300028A288F82EA288F82FA28DF857200393AD
:1016400001F044FC039B217B59F80300524605F04E
:1016500065FF20463A464FF6FF7109F02DFD204602
:101660005146104A104B06F0C4FEABE014000020B7
:1016700000406F4601C05E46000C01407C02002025
:10168000D40700200C3801087C050020D40300207A
:10169000101E00203007002024370108800500209C
:1016A00000040040D9200008E1210008B8500108DA
:1016B000022F3CD10799DFF868E35FFA81FA4FEA1D
:1016C0000A100EEB000100224FF0010C8A708A72A2
:1016D00081F801A00EF800C0CC60A16894F80FE07A
:1016E0006068ADF8541015A98DF856E0CDF810C01B
:1016F000059203938DF8577001F0E8FB039B217B63
:1017000059F80300059A05F009FFDDF810C02046DE
:1017100062464FF6FF7109F0CFFCA84A20465146B9
:10172000A74B06F066FE079A013207924AE0032FA4
:101730002ED1BDF84C30A34FB3F5FA7F97F8E69160
:101740000FD9A14A2046B2FBF3F20821BDF8503070
:1017500092B207F061FF07EB8907C7F8B0029B4B15
:101760000EE09B4A2046B2FBF3F20121BDF8503057
:1017700092B207F051FF07EB8907964BC7F8B0020A
:101780008360904B93F8E621013283F8E62119E05B
:10179000042F17D1BDF84E308D4A8A4F92FBF3F2D9
:1017A0002046BDF85230012192B297F8E59107F03A
:1017B00033FF07EB8903C3F8E00297F8E531013303
:1017C00087F8E5310BF1020BBBF11C0F7FF4BFAEC4
:1017D000C5E6814B08EB030E99E80F008EE80F0079
:1017E0007E4B08F110081A78B8F1C00F02F101021F
:1017F0001A700AD0D4F8A030002153F8080003EB87
:1018000008090CF093FC0028E3D0AB68DB0422D479
:101810001CE0734B714A03EBC70393F83080D3F895
:10182000349082F80080B9F1000FEED04FF0000E36
:10183000C645EADA684A4FEA0E1303EB020C4B4442
:101840000FCB0EF1010E8CE80F00F1E7082FDFF847
:10185000D48129D12AE0614B93F800A0BAF1010F9D
:10186000F4D9DFF8C4814FF00009D14508F1100820
:10187000ECDA58F8100C4FF07C510CF0C3FA4FF032
:101880007C5148F8100C58F8140C0CF0BBFA4FF0CF
:101890007C5148F8140C58F80C0C0CF0B3FA09F110
:1018A000010948F80C0CE0E70E2F04D198F800303D
:1018B00043F0100303E098F8003023F0100388F899
:1018C00000300AF0FFFB4749474B4848484AC4F8F4
:1018D000C43301600023B5F81801C4F8C013A4F89C
:1018E000CA3384F8CC33C4F8D023C4F8D423414994
:1018F00058520233242BFAD13F4B1A60AB681807B9
:1019000040F1AE803D4B002293F81631042B00F2DB
:10191000A180DFE803F003032A448B00012B4FF082
:10192000030208D184F8D823072284F8DA3384F834
:10193000D9230C2308E0022384F8D833002384F849
:10194000DA3384F8D923072384F8DB3300230093A8
:10195000102001232A494FF4E1320AF03DFD294BC2
:10196000C4F8E003C4F8E43370E00123009326498F
:1019700005231020254A0AF02FFDB5F81811C4F8E8
:10198000E803A1F5777149000023214A99500433F7
:10199000302BFAD11F4BC4F8E4330C2354E00092EF
:1019A000012310201C494FF4E1320AF015FD1B4BB6
:1019B000C4F8EC03C4F8E433102345E0597500087B
:1019C000B52100083007002000127A00012200082B
:1019D00040420F00F1210008300A0020802500203D
:1019E000243701081E1F00208C3801083401002014
:1019F000F40A0020F206002028020020101E002019
:101A0000D97B00088D710008ED7C0008A0860100DC
:101A10005401002041720008757C000831720008F2
:101A2000600900206A020020380A00200092012389
:101A30001020B6494FF4E1320AF0CEFCB44BC4F8A2
:101A4000F003C4F8E433082384F8DB33003018BF14
:101A5000012028B9082001F050F80023C4F8E4332D
:101A6000AB68590405D5082284F8DB23A94AC4F8D9
:101A7000E42342F201021A4003F0010103F4005092
:101A80005AB1A54AC4F8E42318B1A44A082082F840
:101A9000DB0311B10C2284F8DB2394F8DB2313F071
:101AA000800FA2F1040284F8DC239D4F47D09B4BAA
:101AB00007F59672D5F83811C3F8F4230023994A34
:101AC00002EB0310D0F894019146884204D0013310
:101AD000DBB2042BF3D9002384F8F933924B0020B6
:101AE000C4F8143408F084F8904B94F8F9231B6878
:101AF0000021C4F8003497F8263109EB02128B421A
:101B0000C4F8FC134FF020000091D2F894210CBFD0
:101B1000012303230AF060FCC4F8180418B98020DC
:101B200000F0EBFF02E0012008F062F8804A814BF0
:101B3000106800F5DD7204301A6001F00DF9AB6831
:101B40009A050DD59D044CBF7B487C4807F0A8FB47
:101B50007B4900220B6843F010030B60794B1A603D
:101B6000794B7A49D4F8D0230B608033C4F81C3405
:101B7000774BDFF804A21A60BB680025D8038AF807
:101B8000005040F1AA804FF00109DFF8F0B101F0F8
:101B90001FF801F059F801F033F88AF8009040F28C
:101BA0002A3A5246584629460FF0AFF9B3696948B8
:101BB00043F00403B3614023ADF8383018238DF8A7
:101BC0003B300EA903238DF83A3005F013FDF3697D
:101BD00043F00203F361604B1968604BB1FBF3F112
:101BE0005F4B01391A8889B222F45C721204120C1C
:101BF0001A801D229A851985A3F814901A8C22F058
:101C000001021204120C1A841A8C9888198B22F083
:101C1000020221F0730109041204090C120C41F0B4
:101C2000600180B242EA0902988019839D861A8475
:101C30001A8B22F008021204120C42F008021A83D6
:101C4000B3F844206FEA42426FEA524292B2A3F8DC
:101C50004420726942EA09027261424E039330469F
:101C600004F04CF9404ACDF858B0159280221A92EF
:101C70004FF480724FF0100B1B9230464FF400521D
:101C800015A91E92CDF85CB0CDF860A019951C95F1
:101C90001D951F9504F014F9039B0FA89A8992B221
:101CA00042F400729A81336843F0020333600223E6
:101CB0008DF83CB08DF83D908DF83E308DF83F901A
:101CC00005F072FC294B1A68294BEA500435802D27
:101CD000F8D107F0E7FD07F0E5FDBB68590540F1D5
:101CE000A8800121042007F0E3F90121054608201E
:101CF00007F0DEF90A4B28439B6884F84A0713F47F
:101D0000806F1C4D3CD10022069257E0257C0008D4
:101D10001D7200085572000861720008300700202B
:101D2000101E002024370108361F00200C1E002042
:101D3000D40300207005002004390108103901087F
:101D400034020020A0000020641F00206C06002048
:101D50001807002000080140A400002000366E0192
:101D6000000400406C00024034040040E8360108E2
:101D7000700600208C0500205C060020500B00201F
:101D80002B681B78032B0FD12B681B78032B15D1E5
:101D9000082007F010F90146082007F005F8003088
:101DA00018BF0120069009E0042007F004F901465D
:101DB000042006F0F9FF0028E6D1A4E7424B06997B
:101DC0002D6819702B7813B9404B1D6023E0012B4F
:101DD00021D13F4E002130462C22C4F84C570FF041
:101DE00094F88E2373704FF07C0AE0234FF07D0946
:101DF000F37086F800A086F82B90364E002130460E
:101E00002C220FF082F88A237370A02386F800A09A
:101E1000F37086F82B902B78022B02D1C4F8505720
:101E200003E0032B08BFC4F85457069A0AB10AF01E
:101E3000CDFC05F087FE284B18607B79052B03D17C
:101E4000264B4FF4C8721A80254B4FF47A721A80D1
:101E5000244BC8221A8098F8003043F0080388F811
:101E60000030214B1A7822F002021A70BB689A07E0
:101E70001ED51E4BC4F8583705F0D8FC282005F0B5
:101E800070FF089B013B0893F6D1194B97F8051199
:101E900018780A460123904203D30133082B0A44E1
:101EA000F9D1144A137097F806215343A4F85C370C
:101EB000BB689B0305D594F8533043F0010384F8C5
:101EC000533021B0BDE8F08F880500209C0500202C
:101ED000C0050020EC050020EC0400205804002080
:101EE000A8250020A0250020B2250020141F0020D6
:101EF000A005002094000020032810B50F4B0DD83A
:101F00000F4A126894888C4208D2D2888A4205D936
:101F1000012202FA00F01A78104318701B780F2B78
:101F20000BD1064B00221A70064B998808B2142870
:101F300002DD1439998010BD9A8010BD900E0020EA
:101F4000341D0020F40A0020024B9A8801329A8046
:101F5000704700BFF40A0020074B1A68074B11783E
:101F6000B3F9040053780B4403EB83039842D4BFC6
:101F700000200120704700BF341D0020F40A00201B
:101F8000064BB3F90400064B1B681B7803EB830375
:101F90009842D4BF00200120704700BFF40A0020FF
:101FA000341D002010B50446FFF7EAFF002814BFD7
:101FB0002046002000F0010010BD024B01221A72E1
:101FC000704700BFF40A0020014B187A704700BF29
:101FD000F40A0020034BB3F90400D0F1010038BF2C
:101FE00000207047F40A0020014B00229A807047BD
:101FF000F40A002003685A1C026019707047016BD4
:102000000346C26810B5406941B1196C541A005DAD
:10201000013918BF0A46C0B21A6410BD196A405C83
:102020000131B1FBF2F402FB1412C0B21A6210BD0E
:10203000026B03691AB15168013B026C02E0C1698D
:10204000026A013B881A1840C0B27047436B13B153
:1020500090F844007047826A436AD31A5842584144
:10206000704743799B070AD5436A8269D154426A13
:1020700003690132B2FBF3F103FB112343627047A2
:10208000437913F0010307D0C368C169026A013BB9
:10209000881A1840C0B2704718467047437910B587
:1020A00013F0010304460DD0FFF7EAFF58B1226A8E
:1020B0006369985CE3680132B2FBF3F103FB11231F
:1020C000236210BD184610BD426A806A131A584236
:1020D0005841704741717047334A10B5136C90688E
:1020E0001944081A40F68C2398429160D0605160E0
:1020F00013463CD9127893F945108A420BD1111F2F
:10210000082908D893F84610182901D8013103E0AE
:1021100083F8442002E0002183F8461093F944102C
:102120008A421CD1204991F84710C1B10021914247
:102130001E4806DA03EB8104246920F811400131BE
:10214000F5E7511E00EB41011630814203D0002417
:1021500021F8024FF9E7164908780130087083F832
:102160004520002201211A7083F8471010BD92F813
:102170004710B9B1A0F2EF2440F2DA518C4208D8EE
:1021800011780B2905D80B1D0131117042F823007D
:1021900010BD002283F84720991804320020302A0D
:1021A0000861F9D110BD00BF180900204E130020AE
:1021B000A5190020084B03EB0010837A0133DBB232
:1021C0000A2B837207D983781BB94178034A22F816
:1021D0001130002383727047600900204E130020E5
:1021E000024B1A6C11441964704700BF1809002093
:1021F000024B53F820301B6819807047E00900201B
:10220000074BA1F57A7153F820304FF47A701A68B1
:102210009B884B4393FBF0F39BB21380704700BF46
:10222000E00900202DE9F04F504A514E176873899C
:1022300084463089A7EB032785B0039187FB000113
:10224000B288CB111404C209F08842EA416287FBCC
:10225000000114EB020872884FF000054FEAC23407
:102260004FEA1022B08945EB030942EA01620B12E2
:1022700087FB000114EB020A4FEAD05242EA4122E6
:102280004FF0000545EB030B12F5FA604FEAE153FE
:1022900043F10001CDE90001B0F5FA6F71F10001E1
:1022A00047DAA2FB024502FB03F1052605EB4105D7
:1022B000A4FB060106FB05114D104FEA3004B8EBF4
:1022C000040869EB050984082A4844EA81748D10E2
:1022D0004FF0FF31BAEB040A6BEB050BDDE900456B
:1022E00084428D4125DA40F6AC5012184FF00001BF
:1022F00043EB010302FB03F1A2FB02236FF0060094
:1023000003EB4103544200FB0344A2FB000118EB22
:10231000000821444FF00B0449EB0109A2FB040122
:1023200004FB031149104FEA3000BAEB000A6BEBD3
:10233000010B114B1A68A2FB0A0102FB0B11420DA3
:1023400042EAC1224B15B2EB080263EB0903D00B42
:1023500040EA4340BCF1000F01D0CCF800000398E4
:1023600008B10099016005B0BDE8F08F6019002048
:102370009407002024FAFFFF64190020324B2DE956
:10238000F0411C88314B0A265A89B3F91250A41A1D
:102390001A89ED025443B3F91420E413224495FB47
:1023A000F2F22244DA615643A2F57A6202FB02F4A9
:1023B000B3F90480B3F902C0B3F90E7002FB0CFC50
:1023C00002FB08F2B3F90C802413674304FB08F402
:1023D000241404EB62320232DC88921002F50042CF
:1023E000B3F920506243B3F900304FEAEC2404EB18
:1023F000E72404EB8304AC40154B02341B68D20B7A
:10240000A3EBA4044CF250332B41634355BF5B0054
:10241000B3FBF2F3B3FBF2F35B001A12524340F644
:10242000DE3462430B4C08365C43241404EB224236
:1024300002F6CF62361103EB221300B1036001B143
:102440000E60BDE8F08100BF70190020A8070020D1
:102450006C19002043E3FFFF08B503681B68984729
:1024600008BDA0F17D03012B70B504460D460A4E50
:1024700005D830687D21FFF7EFFF84F02004306835
:102480002146FFF7E9FF35B12B881C4404EB1424E7
:1024900004F0FF042C8070BD4806002038B5054CC0
:1024A00005465E212068FFF7D7FF20682946BDE872
:1024B0003840D1E790050020014B5E211868CBE73A
:1024C0009005002010B50A4C5E280146206805D111
:1024D0005D21FFF7C1FF20683E2105E05D2903D1A2
:1024E000FFF7BAFF20683D21BDE81040B4E700BF08
:1024F0009005002010B50446C0B2FFF7E3FFC4F317
:102500000720BDE81040FFF7DDBF10B50024094BE0
:10251000E0B21B7883420CD9074B33F81010074BFD
:1025200053F820301BB10B2801D89B689847013421
:10253000EDE710BD8025002082250020E009002065
:10254000054B1B6803EBC00090F9063019420CBF25
:1025500001204FF0FF307047381D00200A4B1A68E9
:1025600002EBC002D379FF2B07D0084909789942C2
:1025700003D9074A32F8130004E00728D4BF908833
:1025800040F2DC5000B27047381D00200B0B0020D9
:10259000F20600202DE9F04F0C68836889B0D0F86E
:1025A00000A0D0F804800646204603938B460EF028
:1025B00035FF074620460EF0D3FFDBF80440814686
:1025C00020460EF02BFF054620460EF0C9FFDBF833
:1025D00008200446104601920EF020FF019A83461F
:1025E00010460EF0BDFF3946029058460BF00AFC2B
:1025F0003946049002980BF005FC59460590484670
:102600000BF000FC0299069048460BF0FBFB2946B4
:10261000079058460BF0F6FB014650460BF0F2FBD4
:102620002146834606980BF0EDFB014605980BF01A
:10263000E1FA014640460BF0E5FB014658460BF037
:10264000D9FA2146834604980BF0DCFB0146079833
:102650000BF0CEFA014603980BF0D4FB0146584626
:102660000BF0C8FA3060029905F100400BF0CAFB8C
:10267000014650460BF0C6FB2146834607980BF0F7
:10268000C1FB014604980BF0B3FA014640460BF03B
:10269000B9FB014658460BF0ADFA21468346059832
:1026A0000BF0B0FB014606980BF0A4FA0146039824
:1026B0000BF0A8FB014658460BF09CFA21467060CF
:1026C00050460BF09FFB2946044609F100400BF0F1
:1026D00099FB014640460BF095FB014620460BF066
:1026E00089FA3946044628460BF08CFB01460398CC
:1026F0000BF088FB014620460BF07CFAB06009B075
:10270000BDE8F08F2DE9F84F374E0446376838465C
:102710000EF084FE054638460EF022FF76688046AD
:1027200030460EF07BFE834630460EF019FFD4F89B
:1027300004900646294648460BF064FBA76882468B
:10274000414638460BF05EFB014650460BF050FA0E
:102750002168824658460BF055FB414604464846E0
:102760000BF050FB31460BF04DFB014620460BF0C1
:1027700041FA3146044638460BF044FB29460BF03B
:1027800041FB014620460BF035FA014650460EF05B
:1027900075FF16490BF036FB0AF028FF10A3D3E9AA
:1027A00000230BF0A1F8124B044618680D460AF0FE
:1027B0001DFF02460B46204629460AF0B9FD0022BD
:1027C0000C4B0BF091F80BF0BFF90EF05DFE83B2ED
:1027D0001A0444BF00F5B4739BB218B2BDE8F88F79
:1027E000182D4454FB210940B80400200000E144A6
:1027F000CC07002000002440064B1B7803F00403A4
:1028000003F0FF001BB1044B1888C0F3C01000F0A8
:1028100001007047B22500203C020020034B1A78CB
:10282000510744BF22F004021A707047B2250020FD
:1028300070B5FFF7A5FB38B3144C237A0BB9A3800E
:1028400070BD134D2E78C6F38000FFF7ABFB90B13F
:10285000104B46F002061A680F4B51892E701980F2
:102860005189598052899A800C4A12685288DA80BC
:10287000E3880133E380FFF76FFB10B92B785B0728
:1028800002D4BDE87040C9E770BD00BFF40A002063
:10289000B2250020F00A0020F2060020341D00209E
:1028A0002DE9F04102780346202A00F10100F9D019
:1028B000092AF7D02D2A02D10346414D04E02B2AE4
:1028C00008BF03464FF07E551E460024334616F8D7
:1028D000012BA2F13007F9B209290DD83949204658
:1028E0000BF090FA044638460BF038FA01462046C1
:1028F0000BF080F90446E9E72E2A17D1314F334611
:1029000016F8010B3038C2B2092A0FD80BF026FA9C
:1029100039460BF02BFB014620460BF06BF9294999
:10292000044638460BF06EFA0746E8E71A7802F0DC
:10293000DF02452A38D15A782D2A02D102330126E6
:1029400004E02B2A14BF013302330026013B002789
:1029500013F8012F303AD1B2092903D80A2101FB1B
:102960000727F5E7B7F59A7F28BF4FF49A77B8465F
:102970004FF07E51B8F1070F07D9084612490BF006
:1029800041FAA8F108080146F4E707F0070737B154
:1029900008460C490BF036FA013F0146F7E72EB125
:1029A00020460BF0E3FA04E04FF07E5120460BF096
:1029B00029FA014628460BF025FABDE8F08100BF50
:1029C000000080BF0000204120BCBE4CF0B50124B7
:1029D000B0FBF4F58D4201D34C43F9E70026DCB19E
:1029E000B0FBF4F504FB1500B4FBF1F41EB9002DA7
:1029F00001DC002CF3D1092D03F101075FFA85FCFE
:102A000004DD002A0CBF5725372500E0302565443A
:102A10001D7001363B46E2E71C70F0BDF0B50124A5
:102A2000B0FBF4F58D4201D34C43F9E70026DCB14D
:102A3000B0FBF4F504FB1500B4FBF1F41EB9002D56
:102A400001DC002CF3D1092D03F101075FFA85FCAD
:102A500004DD002A0CBF5725372500E030256544EA
:102A60001D7001363B46E2E71C70F0BD70B50646AE
:102A7000B6FBF2F40846154614B12046FFF7F6FF00
:102A800005FB1464024B1B5D00F8013B70BD00BFE9
:102A9000725201082DE9F041069C002B06460F46B4
:102AA0000CBF4FF020084FF03008234613F8011BED
:102AB00009B9154603E0002AFBDD013AF6E7002DCF
:102AC00004DD30464146B847013DF8E714F8011BE4
:102AD00011B13046B847F9E7BDE8F08180EAE0730C
:102AE000A3EBE0738B4206DB002801DD401A704740
:102AF00002D00844704700207047034B9A6822EACE
:102B000000009860704700BF101E00200E4B1B781D
:102B1000BBB10E4B1B681A78032A06D10C4B1878F0
:102B200002288CBF0020012070475B7823B1094B3D
:102B30001868C0F3C0407047074B1878C0F3800096
:102B400070470120704700BF7A0E00208C050020DE
:102B50004406002038020020B2250020114A30B57A
:102B60000028B8BF4042104C90FBF2F304FB030076
:102B70003C2568430D4D90FBF2F22D682D7B25B965
:102B800003EB830303EB830301E0C3EB031302EBCB
:102B9000830304FB02020B804FF47A7392FBF3F27F
:102BA0004A8030BD80969800806967FF9C050020B0
:102BB00008B506480EF0EAF9C0B2142805D8034A51
:102BC000431C20211154D8B2F7E708BD8D1900200D
:102BD000094A0A48002310B5116803701A46CC1838
:102BE00064880CB9CC5C24B104330132802BD2B29E
:102BF000F5D1027010BD00BF6C060020F006002069
:102C000010B50B4B0B4819780B4B5A784B085C1ED0
:102C1000047001F0010109480B440370084953088E
:102C2000581E087002F00102064913440B7010BDD3
:102C30002907002024070020900E002026070020EE
:102C40002707002025070020F0B50F4A0F48167807
:102C50000F4A0023176843701A4619460546D0B23A
:102C6000B0420CD217F82200013204099C4200F055
:102C70000F00A8BF631C8842A8BF411CEFE76B7020
:102C8000044B1970F0BD00BFF0060020900E00202C
:102C90006C06002029070020F8B5101A0C461F46C4
:102CA0000BF05CF80546381B0BF058F8174B079EE5
:102CB00019680BF0A7F82946044628460BF0A2F83D
:102CC0002146074620460BF09DF8014638460AF09B
:102CD00091FF0EF05DFE0E490BF094F80BF07EFABA
:102CE000069B2146186005F100400EF0C7FC09491B
:102CF0000BF088F808490AF07DFF0BF049FA00282C
:102D0000BCBF00F50C40A0303060F8BD3C00002096
:102D10002C7D8E3FA00CB34500A00C4610B50BF0E7
:102D20001DF8002104460BF029FA08B1204601E005
:102D300004F1004005490BF019F905490BF062F860
:102D40000EF06CFB034B186010BD00BF8096184B53
:102D500035FA8E3C3C00002070B5044600790AF03C
:102D6000F9FF1E490BF002F91D4D1E4E2860A07B95
:102D70000AF0F0FF19490BF0F9F8EE60686060792D
:102D80000AF0E8FF18490BF0F1F8184D2860E07BD5
:102D90000AF0E0FF11490BF0E9F86860607E0AF084
:102DA000D9FF13490BF0E2F8EE60A860A0790AF0B1
:102DB000D1FF0D490BF0DAF80E4D2860207C0AF0A7
:102DC000C9FF06490BF0D2F86860A07E0AF0C2FF86
:102DD00007490BF0CBF8EE60A86070BD0000C84258
:102DE000F41000200000FA440000204104110020EB
:102DF00000007A442811002044F25063984203DD19
:102E0000A0F50C40A0387047034B9842BCBF00F5BA
:102E10000C40A030704700BFB0B9FFFF10B50023D1
:102E2000094CDAB254F8224001338442F8D100232D
:102E3000064CD8B234F8104001338C42F8D102EB82
:102E40008000C0B210BD00BF0C3E01085240010816
:102E500090F83B3210B57BB990F83A3290F83922AD
:102E6000934209D201219940B0F8404201332143F5
:102E7000A0F84012DBB2F3E710BD8379012B03D138
:102E8000D1F1010138BF0021D0F834315A681B89D3
:102E900009B11361704753617047044B53F82030F8
:102EA0001BB107289CBF1B6819807047100A0020BF
:102EB00010B5054C00202188FFF7EFFF6188012045
:102EC000BDE81040E9E700BF840000202DE9F04193
:102ED0000F88002347FA03F2D2072BD58A7803F034
:102EE000070512F0100F18BF91F803C002F00F068B
:102EF00018BF46EA0C06AD004FF00F0C0CFA05FCAB
:102F000006FA05F5DC0850F82480282A28EA0C0C7B
:102F100045EA0C0540F8245005D101229A40C468C6
:102F200024EA020205E0482A04D101229A40C4683A
:102F30002243C2600133102BCCD1BDE8F08100BF29
:102F4000A14A2DE9F04F1368A04903F59C43A04D19
:102F500020330B60AB6885B013F4807F174604D034
:102F60009C4B1B681B681B699847AB6842F20104C5
:102F70001C405CB9984E337873B1964B1B681B6844
:102F80001B68984708F0B0FF347005E0934B1A783F
:102F900001321A7008F0A8FFAB68DA0405D5904B2F
:102FA0001B68DB0701D4FFF739FC8E4B3C681B68BC
:102FB0001E7CCEB18C4A013E32F91600A0F57A7023
:102FC000B0F57A7FA8BF4FF47A7020EAE0700AF07B
:102FD000C5FE86490AF0CAFF85490AF013FF0BF0C7
:102FE000FDF87E4B58803EE0AB681F043BD57B4A22
:102FF0005368E31A002B36DB04F59C4320335360FF
:103000007C4B59797C4B33F81100137A80B2013331
:1030100003F00F031372D7180AF0A0FE77490AF0E5
:10302000A5FF0BF0DBF83346787230466B4E06F1A5
:1030300009029A5C01331044102B80B2F6D100B221
:1030400090FBF3F000B26428A8BF642020EAE0708F
:103050000AF084FE6A490AF089FF65490AF0D2FE47
:103060000BF0BCF87080AB68D80510D5654B9C425E
:10307000654C08D923681B681B6A984718B92368F0
:103080001B685B6A984723681B685B699847AA6856
:10309000DFF8548112F4805F4D4BB5F8DC10B8F9BD
:1030A000062007D0B3F81831581A824207DD1944B8
:1030B0008A4202E0B3F81A319A42C0F21C8401221B
:1030C000002195F8219195F82201B5F81A61B5F81B
:1030D0001C710B4638F901409B08B442C4BF63F031
:1030E0007F03DBB20231BC42B8BF43F04003082982
:1030F000F0D13A4C617E994204D1A17EF92903D8DE
:10310000013100E00021A1766376404B344F1978FD
:10311000A1B93B68D90707D582B93D4B1B78DB07BE
:103120000CD504F055FE09E0394B1B785E0705D538
:1031300010B1FFF773FB01E0002AFAD0A37E274A03
:10314000142B344E40F09880314B19F100091B7854
:1031500018BF4FF0010903F0040303F0FF0083B12F
:103160002A480378002B00F08780537E5F2B02D122
:10317000FFF754FB80E0B9F1000F7DD07D2B7BD1B0
:10318000F6E7537E572B0BD1234B4FF47A721A80FC
:10319000224B1B6813F008036ED1214A13806BE0A9
:1031A000A968490746D55A2B44D11E4B197819B145
:1031B000187001221C4B4EE0D17E1C4B81F00101A6
:1031C000D176A9B3042246E09C2500202C020020E1
:1031D000101E00202802002030010020940E002044
:1031E0003802002034010020F206002000007A445A
:1031F00000C07F443E0700204E070020CDCC234274
:103200000000C842404B4C00000B0020380000205A
:10321000B2250020D4030020A8250020340200207D
:10322000CC040020850400208704002086040020B0
:10323000062210E05D2B00F0E4825B2B00F0E382BD
:103240005E2B0AD10322DFE2A72B40F0FC82B34BB6
:103250001A7842F004021A700EE0562B01D109F0E0
:1032600051FFAF490B78002B00F0E482637E6F2B97
:1032700040F0DA8204F0ACFDAB685A0731D5E37E4A
:103280009BB1A84B1B785B070FD5A74BB8F906205D
:10329000B3F81A319A4208DD3B6813F0010304D1F8
:1032A000A24A32211180A24AD3763B68D8030AD5BC
:1032B000A04B1A782AB9A04A127812B99B4A322137
:1032C000118001220CE09C4B1A7852B1954A127879
:1032D00002F0040202F0FF011AB91970974B0122A3
:1032E0001A703668002306F17D0B3B6006F17F0AF9
:1032F00099460BF1020303EB090113F809204B78FF
:103300001AF8010C9A420AD2514605F035F830B14C
:103310001AF8023C01229A403B6813433B6009F1D2
:103320000409B9F1A00F0AF1040AE2D106F21D1254
:10333000009206F58F774FF00009009A17F8010CFC
:10334000531C03EB090113F809204B789A422CD245
:10335000394605F011F840B397F802A07848744A4E
:103360000AF1FF3A397900EB4A0302F11C0C019390
:103370000CEBC10310F81A0093F801A097F803B002
:10338000824512D00CF831B05870019890F801C005
:10339000002083F802C05860012303FA01F192F87B
:1033A0003C3023EA010182F83C1009F10609B9F129
:1033B000480F07F10607C0D1624B634FD3F800A056
:1033C00006F150094FF0000B3A78002A00F0018115
:1033D000D7F80330C3EB0A03002B0CDB0AF5FA73B2
:1033E000C7F80330012303FA0BF394F83C1021EAE9
:1033F000030384F83C3017F8013CB5F81811043386
:10340000DBB238F9133001F1C800834201DD7B786B
:1034100013E0C8398B4202DA7B785B420DE001236E
:1034200003FA0BF394F83C2022EA030384F83C30BF
:103430000AF5FA73C7F80330CBE094F83C0040FA81
:103440000BF1C90700F1C580012101FA0BFC4CEA20
:10345000000C3748002B80F83CC03C48C8BF022114
:10346000013A01700A2A00F2B480DFE802F0061186
:103470001F2E39447183959FA90096F8502013445C
:10348000FA2BA8BFFA2323EAE37386F8503009E049
:1034900096F851201344642BA8BF642323EAE373F6
:1034A00086F85130484604F033FB92E096F85320FA
:1034B00048461344642BA8BF642323EAE37386F8C9
:1034C0005330216C04F0E0FA83E096F85420134462
:1034D000642BA8BF642323EAE37386F8543078E0B2
:1034E00096F855201344642BA8BF642323EAE373A2
:1034F00086F855306DE0616C4A781A44C82AA8BF36
:10350000C82222EAE2724A700A781344C82BA8BF84
:10351000C82323EAE3730B705BE000BF6A0200205C
:1035200038000020B2250020101E00206C0400206E
:10353000940E0020840400208504002087040020CD
:103540001C3E01080C1E0020B10E00208604002045
:10355000616CCA7A1A44C82AA8BFC82222EAE27259
:10356000CA728A7A1344C82BA8BFC82323EAE3731C
:103570008B722EE0616C4A7D1A44C82AA8BFC8220B
:1035800022EAE2724A750A7D1344C82BA8BFC823F9
:1035900023EAE3730B751CE0626C91780B44C82B33
:1035A000A8BFC82323EAE373937012E0626C117B17
:1035B0000B44C82BA8BFC82323EAE373137308E0A6
:1035C000626C917D0B44C82BA8BFC82323EAE37328
:1035D00093750BF1010BBBF1040F07F108077FF4A2
:1035E000F3AEA14FDFF8D4823B68A04E13F0020F78
:1035F00004D0D8F800309B070BD415E0AB68D80591
:1036000012D59B4B1B681B689B6898470028F0D11C
:103610000AE0338813F001020CD1944943F001030E
:10362000A264E2640B8006E03388012223F00103E8
:10363000338000E000223B68590710D57AB1328808
:1036400022F0010102F0020289B292B2318052B935
:10365000A264E264854A41F00201118003E03288ED
:1036600022F0020232803288824912F0030F4FF0BA
:10367000100014BF48610861D8F8001011F00A0F5B
:1036800021D0D80609D554070AD442F0040232806A
:10369000794A1088794A108002E022F004023280D0
:1036A0009806328806D5540607D4704842F0400286
:1036B000028002E022F040023280580603D56E4AB2
:1036C00010886F4A10808A0640F186806D4A127811
:1036D00094077AD56C4A1278042A76D913F4007CC0
:1036E000328812D002F010039BB2002B74D15F49D4
:1036F00022F0200242F0100264480A80644A011D50
:10370000537003F0CBFC022264E022F0100189B276
:10371000580531802CD55F4B5F4C1B685889B4F934
:103720000030002BB8BF5B42834209DAB4F90230A3
:10373000002BB8BF5B428342ACBF0023012300E0F3
:103740006346DB0714D502F0200292B2002A43D16F
:103750004F4B52485A70524B41F020011A685B6837
:103760003180011D0260436003F098FC012231E0CA
:1037700022F030023280464A53786BBB01215170EF
:103780001A464849002050524749484C505248492F
:1037900004EB030C5052002119510232CCF8040002
:1037A000CCF8081004F1280C503443F80C101951CF
:1037B0009C441C44042ACCF80400CCF80810606037
:1037C000A16003F11403DCD106E03388002223F06A
:1037D00030033380374B1A703B6813F4006F338823
:1037E00014BF43F4807323F4807333806B79082B08
:1037F00002D00E2B40F09280338823F040033380B8
:103800008CE0012200E002225FFA82F909F1FF3325
:1038100085F86C3705F080FC09F066F90220282154
:103820004A4604F0AFFA27E5B9F1000F02D07E2B2B
:103830003FF420AD637E972B7FF406AD1E4B4FF413
:10384000C8721A8018E50022BB2B039201D1022313
:1038500003E0B72B04D14FF6FE73ADF80E3036E01F
:10386000BE2B2DD1022330E0380200203C02002084
:10387000000B0020000C0140CC0400206605002055
:10388000681100206A020020B005002040120020CC
:1038900038000020700500204A0200204812002055
:1038A000B4050020AE25002074050020E40E0020A1
:1038B0007805002050120020580400203402002017
:1038C000BD2B7FF4D9AC4FF6FE73ADF80C303368E6
:1038D000BDF80C10B3F85C200A44A3F85C20BDF8D6
:1038E0000E10B3F85E200A44A3F85E2009F00AFC2B
:1038F0000023A376C0E40B4B002200219A64DA6413
:10390000C3F8C820C3F8CC20C3F8D020C3F8D41023
:10391000C3F8D810C3F8DC10FFF7D2BB05B0BDE880
:10392000F08F00BF940E00202DE9F04F974B91B01F
:103930001B68BBB9964C2378013B042B00F204872B
:10394000DFE813F01D061D061D06F206D8062068E6
:1039500004F08DFA8F4B04461B681B784BB1012B8A
:1039600000F0ED80894C206804F086FA0028EED142
:10397000E0E72428884D0CD006D80A2800F08E8075
:103980000D2800F08B80C6E02A2806D02C2804D011
:10399000C1E02B706B70AB70CEE06A782E782A4451
:1039A00000217D4BD170EEB9DA789E74472A19D187
:1039B0001A79502A16D15A79472A07D19A79472A73
:1039C00004D1DA79412A01D101229A746A79724BC1
:1039D000522A07D19A794D2A04D1DA79432A04BFB1
:1039E00002229A74AB7C6C4F012B02D0022B36D092
:1039F00049E0B31E072B46D8DFE803F00408101493
:103A00001C27452C04F036FE68613CE0EA78624BE6
:103A1000532A38D15A6952425A6134E004F02AFEDE
:103A2000A86130E0EA785C4B572A2CD19A6952425F
:103A30009A6128E0EB78302B584B1A788CBF42F013
:103A4000020222F002021A701DE0002004F06CFE57
:103A5000287718E0002004F067FEE88313E0072EC3
:103A600006D0082E0FD1012004F05EFE78840AE013
:103A7000012004F059FE41F2184358434FF47A7282
:103A8000B0FBF2F33B84013600232A2C424A2E700D
:103A90006B704CD1012182F824104DE095F8243050
:103AA000002B34D03C4BDB78402B04D9A3F13702F8
:103AB0001201D2B202E01B0103F0F0022B79A978C7
:103AC000402B8CBF373B303BDBB21344DBB2994217
:103AD000314A1BD1937C012B08D0022B16D1118CBB
:103AE0002F4B528C19802F4B1A800FE02B490978ED
:103AF0008E070CD52C495069086090694860107F8A
:103B00002A490870D18B2A4A118000E00023002244
:103B100085F8242010E06B781F4A0E2B03D8591C1F
:103B200013445170DC7095F824301B4A1BB991780E
:103B30004C40947000E0002303F0010361E1164B58
:103B4000002193F82520082A00F25A81DFE802F0CC
:103B50000B0514324353718D9A00622801D1022261
:103B600007E083F82510B52C40F04A8193F8252012
:103B7000013283F8252043E1032283F8252083F8CE
:103B8000260083F8270083F8280039E1480B00203D
:103B9000280B0020440B0020740F00206A02002034
:103BA000AC0500200E190020B4050020B00500204F
:103BB000AE050020042283F8252093F8272093F8EF
:103BC00028100244D2B283F827200A4483F8282020
:103BD00083F8290014E1052283F8252093F8272093
:103BE00093F828100244D2B283F827200A4483F8BD
:103BF0002820588504E1062183F8251093F8271022
:103C000093F828002144C9B283F82710014483F8AF
:103C10002810598D6C4A01EB0424A4B2B4F5007F3E
:103C200089BF00215485518582F8251000229A858C
:103C3000E6E093F8272093F828100244D2B283F8E4
:103C400027200A4483F828209A8DC72A03D85E4982
:103C5000114481F83000013292B29A855B8D934213
:103C600040F0CE800722584B83E7082283F82520B6
:103C700093F82730834200F0C380534A002382F830
:103C80002530BEE083F8251093F828104E4A814273
:103C900040F0B68092F82910062947D004D80229AE
:103CA00012D003292CD0ABE012295CD0302940F08F
:103CB000A78092F83410454A102988BF102111704E
:103CC0001078434900225CE04249506B4860906B99
:103CD0000860116C4FF47A7091FBF0F13E4801805E
:103CE00092F8F8103D4A19B1117841F0020102E052
:103CF000117821F002011170012283F8F92055E0BA
:103D000092F8351011F0010105D092F83420D41E3C
:103D10006242624100E00A4683F8F820002A45D159
:103D20002E4A117821F0020111703FE092F83B1009
:103D300011F0010105D092F83A20D01E42424241D2
:103D400000E00A4683F8F82022B9244A117821F0CD
:103D50000201117093F85F10214A1170B3F85C10E2
:103D6000204A118022E0516C1F480180916C42F280
:103D7000107091FBF0F11D480180012182F8FA10CA
:103D800014E0824201F10C0110DA11F8045C184CC5
:103D9000155511F8035C174C155511F8015C164CBC
:103DA00015550D78154C15550132EAE793F8F930A1
:103DB000054A2BB392F8FA3013B3002382F8F93096
:103DC00082F8FA3001231CE0740F00201019002043
:103DD000A40F0020B4050020AE0500206A020020D8
:103DE000B00500209C000020AC0500200E1900202A
:103DF000111900202119002031190020411900203B
:103E00000023002B3FF4AEADA54BA64E9A68DA60B6
:103E100032689A60A44B1A6842F020021A60A34BE1
:103E20001A78012A0CBF002201221A70A04B1A78BE
:103E300091077FF597AD9F49097804297FF692ADE8
:103E40009D49097801F0040101F0FF0011B922F049
:103E500001021A701B78964F13F0010F974C984D82
:103E600011D180B19B070ED5964B28686A681860FF
:103E70005A60FEF753FF944B1B88A4F8FC303B7844
:103E800043F001033B7094F8FE304FF00509013315
:103E900093FBF9F909EB8909C9EB03098B4B8C48B2
:103EA0001B7884F8FE900593831D03EB8909079026
:103EB0000023DFF80CE2874A53F80E00864F985033
:103EC00090FBF7FC02F1080743F807C0834F03EBB0
:103ED0000E0107FB0C0742F2107097FBF0F0069101
:103EE000079980B221F8020F02F1100A03EB830B4D
:103EF0000490079153F80A0059F80B1049F80B7019
:103F0000C1EB000808EB0700734F4FF0050843F8BA
:103F10000A0090FBF8F007FB0C0005991832012904
:103F20009850774608D1DDF810E0AEF10202B2F504
:103F3000797F9CBF069908600433082BB9D1DFF85C
:103F40007C813068D8F84C31C01A09F003FF64490D
:103F50000AF00CF833684FF07E51C8F84C318146B6
:103F60000AF0EEF810B94FF07E5000E048460CAA77
:103F7000C4F85001534B00920DAA019297E8030038
:103F80000CCBFEF789FE0C9B56496422B3FBF2F37F
:103F90000D980B80544B90FBF2F21A80444A474E26
:103FA000127812F0010208BF1A8098F8543108BF45
:103FB0000A80002B3AD0D6F850114FF07E5009F00D
:103FC000D5FFD6F8583181462868C01A09F0C6FED8
:103FD000494609F017FF0AF0DBF8D6F85C211FFA12
:103FE00080FA68680FFA8AFA801A09F0B7FE3F4B28
:103FF000196809F007FF494609F004FF0AF0C8F8FC
:10400000B6F9623100B2C218B6F9603102215344E8
:1040100092FBF1F293FBF1F392B29BB2A6F8662108
:10402000A6F86431A6F86221A6F86031012388F869
:1040300054312F4B79681B88386803F030031F4DCB
:104040001F4EC8F85C11C8F85801002B3FF48AAC29
:1040500005F5B873009305F5BA730193D5F8682197
:10406000D5F86C31FEF718FE7368D5F86C01C01AEC
:1040700009F074FE1D4B196809F0C4FE0AF088F8B7
:10408000D5F868313268C5F87C019B1AC5F87831DB
:104090000E4B1B78012B2DD0022B00F0F98061E430
:1040A000280B00200C1E0020340200203C120020AF
:1040B0006A020020B0050020B2250020740F002005
:1040C000B405002040120020CC0400205012002033
:1040D00072100020A010002080969800806967FF71
:1040E00000007A44180600201A0600203C00002038
:1040F0003C020020D5F88071D5F89C410497D5F892
:10410000907104F100400597D5F89471D5F850618D
:1041100007970AF03DF8804620460AF039F8904BA0
:10412000D5F898511B688F4C069508900993002587
:10413000DFF850A25AF81570AAF11403384635F882
:10414000039009F00BFE049909F05CFE0AF020F8D8
:10415000C9EB000080B20AF1280A25F80A000FFA1C
:1041600080FA504609F0FAFD059909F04BFE0AF075
:104170000FF81FFA80FB0AEB070009F0EFFD079923
:1041800009F040FE314609F03DFE216809F032FD9C
:1041900009F0FEFF404505DBDDF820E07045A8BFD3
:1041A000704600E0404609F0D9FD206009F0F0FFBC
:1041B00058441FFA80FB606809F13109381A09F088
:1041C000CDFD314609F0D2FE0999206184468878F8
:1041D000D4F808A0CDF80CC009F0BCFD09F006FA2F
:1041E0005DA3D3E9002309F055FA02460B460020EF
:1041F0005D4909F079FB09F0A7FC314609F0FAFCAA
:104200000146304609F0B2FEDDF80CC003465146C7
:104210006046039309F0ECFC039B0146184609F045
:10422000F1FD0146504609F0E5FC1FFA89F9B9F1A4
:10423000620F014620616760A0600ED9069809F000
:10424000E1FD09F0A5FF494BB0F5FA6FA8BF4FF4A7
:10425000FA609842B8BF184600E00020834440F658
:10426000B8330FFA8BFB9B45A8BF9B46404B0A22F5
:104270009B45B8BF9B466A433E4B54F8141B25F838
:1042800003B03D4B0235042DD1503FF46BAB4FE7EB
:10429000334BD5F870B11F68B5F8A461B7F8089032
:1042A0004FEA5B03994528BF994633B2994502DC32
:1042B0001FFA89F90BE03149D5F8500109F0A2FD48
:1042C00009F066FF30441FFA80F9A5F8A491D8F8E8
:1042D0007451D8F8A861AE1B3046FEF78DFD00285A
:1042E000D8BF404241F293139842CCBF0020012036
:1042F000002849D0304609F031FD214909F082FDFE
:104300000DF02EF90646584609F024FD01463046C8
:1043100009F078FD09F03CFF80B240F6B83203B2F4
:104320009342A8BF1346124AA8F8AC019342ACBF0F
:10433000EB18AB1848F6A042934203DDA3F50C43FB
:10434000A03B04E0002BBCBF03F50C43A033C8F82E
:10435000B0311BE0AFF30080182D4454FB2119400D
:10436000700500200C0F00200000F03F30F8FFFF28
:1043700048F4FFFF78050020340F00200000C842F9
:10438000D3023739EC100020C8F8B051D4F8B0216E
:10439000C2F50C502830049209F0E0FCA44909F061
:1043A00031FD05460DF03AF80F9028460DF0D8F88B
:1043B000D4F8C051D4F8B431D4F8B8E10E9005F176
:1043C00000400793CDF828E009F0E2FE059028466A
:1043D00009F0DEFED4F85081D4F8BC410B9009946A
:1043E000944C0025484609F0B9FC0EAB53F8151063
:1043F00009F008FDDFF874A206463AF9050009F055
:10440000ADFC0146304609F0F3FB09F0C1FE8A4BD2
:1044100006B2B6F57A7FA8BF4FF47A769E42B8BF4F
:104420001E46B0B20AF13C0A25F80A0000B209F0B3
:1044300095FC0799824609F0E5FC09F0A9FE80B2D7
:1044400008900A99504609F0DDFC414609F0DAFC73
:10445000216809F0CFFB09F09BFE0599884204DB37
:104460000B9A9042A8BF104600E0059809F076FC30
:104470008246206060681434301A09F06FFC4146AF
:1044800009F074FD54F80C3C44F8040C8446B878E8
:104490000693CDF80CC009F05DFC09F0A7F862A303
:1044A000D3E9002309F0F6F802460B4600206349E1
:1044B00009F01AFA09F048FB414609F09BFB014656
:1044C000404609F053FDDDF80CC0034606996046EE
:1044D000039309F08DFB039B0146184609F092FCFB
:1044E0000146069809F086FB44F8106C014644F832
:1044F000040C44F80C0C099809F084FC09F048FEFF
:10450000089E0644504609F043FE304440F6B83356
:1045100000B29842A8BF1846494B0A229842B8BF39
:1045200018466A43474BE852474B0235042D42F880
:1045300003A07FF457AF3B792BB104986422434B1F
:1045400090FBF2F21A803B88414C9B450ED9D4F87F
:10455000A831D4F87401C01AFEF74EFC42F2107371
:104560000028B8BF404298427FF7FCA9394B01228E
:104570001A70B4F8FC20354B1A80FFF7F3B9364AAD
:10458000116890460F7817B1012F0DD0AFE0012BC5
:1045900000F2AD806278314B03EB0213304A596868
:1045A000106803F05FFC9FE02D4E306803F055FC6F
:1045B000B146002800F09B8023782A4D022B29D099
:1045C000032B55D0012B40F09280274B1F686B695D
:1045D000FB1A632B40F28B802B69042B18D8DFF871
:1045E0007C80306808EB0313596803F03BFC6B7860
:1045F000366808EB03139D6815F8011B19B13046A6
:10460000FDF72AFFF8E723696761013323616EE054
:1046100002206AE06A78114B306803EB0213596894
:1046200003F020FC032060E0182D4454FB211940C6
:10463000D3023739340F002018FCFFFF0000F03F91
:1046400048F4FFFF780500200C0F002066050020CD
:10465000740F002050120020440B0020B4380108D1
:10466000480B0020280B00200C1E0020D810002032
:104670002B7E03B92F76227E354B012A14D11A697D
:104680007B2A0DD8D8F800309B782BB9314BD9F85C
:104690000000995CFDF7E0FE23690133236103E02C
:1046A00000221A6102221A76227E294B022A18D190
:1046B0001A690F2A13D8D8F80030997859B95B785D
:1046C000244903EB03130B441A44D9F8000092F871
:1046D0007D10FDF7C1FE23690133236101E0032250
:1046E0001A76237E022B02D9042005F081FA0023DA
:1046F000636029E063680522013363606378012009
:104700000133DBB2B3FBF2F202EB82029B1A63705D
:10471000114B00221B68A360104B1A70104B1A78C3
:1047200022F002021A700DE00B4B1A68A368D21A2D
:1047300040F6C4139A4207D90A4B05201A6822F0A2
:1047400020021A6005F054FA11B0BDE8F08F00BFE6
:10475000280B0020323E01080C1E0020B00500206E
:104760006A02002034020020644B2DE9F04FB3F9B7
:104770000640634B85B01968B1F858309C420FDB96
:10478000B4F5FA6F91F8567007DAE21A5743A3F5B9
:10479000FA6397FBF3F7643703E0C7F1640700E0BF
:1047A0006427584B0020B3F8182193F9EC3002929B
:1047B0005B429BB203930D460246504B029E30F97A
:1047C0000380C6EB080303F2F31E40F2E636B6455B
:1047D00003D8002BB8BF5B4201E04FF4FA73022A02
:1047E000494E31D091F865E1BEF1000F04D0734518
:1047F000CCBFCEEB030300234FF0640EDFF810A113
:1048000093FBFEFC6FF0630B3AF81C900BFB0C3B28
:104810000CF1010C3AF91CA00FFA89FCCCEB0A0C44
:104820000CFB0BFC9CFBFEFCE14491F854C026F809
:10483000009003FB0CFC354B9CFBF3F373449BB2E1
:104840007B4393FBFEFE1BE091F866E1BEF1000F97
:1048500004D07345CCBFCEEB03030023DDF80CC0BE
:1048600003FB0CFEA6F804E091F855E0002BB8BF5E
:104870005B4203FB0EFE254B9EFBF3FE0EF1640E26
:104880008B1893F80490DFF88CC00EFB09F96423B1
:1048900099FBF3F902F80C9095F80EA00CF10309BE
:1048A0000EFB0AFA9AFBF3FA02F809A095F81890A1
:1048B0000CF1060C0EFB09FE9EFBF3F302F80C3024
:1048C000029B984506DA104B30F803E0CEF1000E5B
:1048D00020F803E00132032A00F1020005F101058E
:1048E0007FF46BAF074FB7F81A319C4214DBB4F575
:1048F000FA6FA8BF4FF4FA640FE000BFF206002081
:10490000D4030020101E00204A0200200CFEFFFFEE
:1049100038110020461100201C46E41A4FF47A7228
:104920005443C3F5FA63B4FBF3F36420A64C93FB42
:10493000F0F204EB42016FF0630E0EFB0233098BC1
:1049400004EB4202B2F91AE00AB2C2EB0E02534380
:1049500093FBF0F09D4B01441A889D4D5006F18069
:104960003ED59C4B1888238EC01A00B208F02CFE4E
:1049700093A3D3E9002308F08DFE09F0E5F806467D
:104980000CF04CFD804630460CF0EAFD0646B5F9C9
:10499000020009F0E3F98146B5F9000009F0DEF9FB
:1049A0004146824609F02EFA31468346484609F0D0
:1049B00029FA0146584609F01BF909F0E9FB41467E
:1049C0002880484609F01EFA31468046504609F0D4
:1049D00019FA0146404609F00DF909F0D9FB688043
:1049E000BA6840F602031340002B53D07A4B0621DD
:1049F0001D88636B1D4494F8383065630133DBB266
:104A0000B3FBF1F084F8383001FB103313F0FF0FE3
:104A100040D1910706D502F009FF02F0F1FE6A4B82
:104A200083F83900BB681A0532D56C4BE16B5A7BB1
:104A30006B4B33F81200082391FBF3F280B28A1A11
:104A40000244E26392FBF3F292B240F6E4435A432B
:104A5000644B40F6FF71B2FBF1F219684FF47A73C0
:104A6000C8888988121A5A4392FBF1F255435E496D
:104A700095FBF3F30A60D4E91001C01841EBE37130
:104A8000C4E910010023594A09F0C8FB584B1860CB
:104A90000023636357494C4A0B6894F8396013F458
:104AA000805318BF012382F84830BB68894613F44D
:104AB000807F514D2CD0DFF854812878D8F8003011
:104AC000C0F380001B685B68984760B1012384F8DD
:104AD0004930D8F800301B68DB68984718B13A4B6A
:104AE000022283F84920D8F800301B689B68984759
:104AF00028B12B785B075CBF022384F84930D8F8D3
:104B000000301B689B69984710B1002384F8493036
:104B10003A4B1A6890060DD5D9F8003013F4C06FDF
:104B200005D0374B1B78990701D4012300E00023FF
:104B300084F84A3094F84920234B022A02D14C20B1
:104B40004E211CE0012A06D153204D214C220B4658
:104B500004F0BCFF2AE093F84A20012A03D1532035
:104B600001464E2206E093F84820012A04D1532042
:104B7000014602464D23EBE726B153204D210A465C
:104B80004423E5E711490A88120603D553204D2135
:104B90000246DCE71B4A12781AB1192004F064FFC0
:104BA00004E0304683F84B6003F0E5F82B785807B3
:104BB0002ED5154B08225A6185E000BFAFF3008067
:104BC000399D52A246DF913F381100203C0200205F
:104BD0004A020020CC040020E80400203E07002008
:104BE0004E070020880E0020A4050020407E05000E
:104BF000A805002038020020B22500203402002041
:104C00006A02002086040020000C0140040B0020F2
:104C1000D9F80020D10703D4B34943F001030B7046
:104C2000B24E336813F0020302D0B1490988A1B92A
:104C3000B049098801B12BB9AF4B1B88003318BFAD
:104C4000012300E0012343B1AC4BD96881F0080196
:104C5000D9602B7823F001032B70A94B1B781E071A
:104C600003D42B7823F001032B70D00203D52B78CB
:104C700023F001032B702B78A24A13F0010F05D00B
:104C80000023E3649D4B082119610BE0E16C13687C
:104C900041B99D4903F5F42303F59073CB64974B19
:104CA00008215961E36C12686BB1D21A002A0ADB41
:104CB000924A03F5F423D16803F5907381F008015B
:104CC000D160914AD364914B1B780BB107F07EFD04
:104CD0008F4B1B7813B101F025FFE5E3012002F0B3
:104CE00023FA002800F0E083DFF8488298F84A3081
:104CF000012B40F0D383874A874BD8F80010C2F8C5
:104D0000008019609146844A106803F0B5F80028C5
:104D100000F0BE83804B186803F0A9F8D9F8003082
:104D200093F84820DAB9B0F124014A424A4183F8A5
:104D30004820002AE7D12B785B07E4D4232802D14E
:104D400001F0F0FEDFE7D4F8E8301B7D8342DAD1D2
:104D5000724A734B1A60734A734BDA60D3E7012AC5
:104D600004D14D2814BF002202228EE3022A04D16E
:104D70003C2814BF0022032287E3032A0AD14028DB
:104D80004FF0000200F281831A71DA715871987144
:104D900004227AE3042A06D19A7983F84900504024
:104DA0009871052271E3052AADD159791A7991429A
:104DB000997906D941409971511C1971134418729F
:104DC000A1E7814240F05E8393F8490004F098FF28
:104DD000002840F05283D9F8003093F84930C92BAD
:104DE00000F04C8247D82D2B00F0E08224D8252BF0
:104DF00000F0BC8206D8212B00F01082232B00F09B
:104E0000708172E3292B00F0BC822B2B00F0C6824C
:104E1000272B40F06A83002002F098FD02F054FD39
:104E2000424EA6F8E60002F04FFDA6F8E80002F0B8
:104E30004BFDA6F8EA001DE3332B00F0CB820CD823
:104E40002F2B00F0D982312B40F04F83374EC020FA
:104E500002F07CFD06F1800AE4E2442B00F00483BA
:104E6000C82B00F09A80412B40F03F83002002F0D5
:104E70006DFD0026B6E2D12B00F03D8262D8CD2B2D
:104E800000F0E58158D8CA2B00F09F80CC2B40F071
:104E90002C83274ED6F800A002F00CFD8AF85000B3
:104EA000D6F800A002F006FD8AF85100D6F800A05E
:104EB00002F000FD8AF85400D6F800A002F0FAFCD7
:104EC0008AF85500D6F800A002F0F4FC8AF85600E3
:104ED000D6F800A002F0EEFC8AF85200366802F024
:104EE000E9FC86F85300C5E2B22500203402002018
:104EF000A025002058040020A8250020000C014017
:104F00006A0200209C25002038110020880500201E
:104F1000AC250020380600203C060020EFBEADDEA8
:104F2000F04F00200400FA0500ED00E0101E002004
:104F3000D403002088110020CF2B00F0FC8040F229
:104F40008F8179E1D42B00F0318109D8D22B11D097
:104F5000D32B40F0CA8202F0B7FCCC4B188089E218
:104F6000EF2B25D0FA2B00F08581D62B40F0BD82A7
:104F7000002613E12B7803F0040303F0FF06002B57
:104F800040F0788202F096FCC14B022883F86C074F
:104F900040F2588183F86C6754E1002602F094FCDB
:104FA000BC4B98530236102EF8D10122BA4B5FE168
:104FB000BA4ED6F800A002F087FCAAF85E00366868
:104FC00002F082FCA6F85C0054E2B44E33681B7811
:104FD000022B69D10026DFF8C4A2DAF800B002F093
:104FE00069FC06F108020BEB820B08F0B3FEAC493A
:104FF00008F0BCFFCBF80400DAF800B002F05AFC6D
:1050000006F10A020BEB820B08F0A4FEA54908F09A
:10501000ADFFCBF80800DAF800B002F04BFC06F167
:105020000E020BEB820B08F095FE9F4908F09EFFE5
:105030000136032ECBF80400CDD1072E1BD1DFF8AB
:105040005CB2DBF80020009202F034FC08F082FE33
:10505000934908F08BFF009ADBF800B0906402F0EF
:1050600029FC08F077FE8E4908F080FFCBF84C0051
:1050700002F020FC14E0DAF800B002F01BFC0BEBAD
:1050800006031871DAF800B002F014FC0BEB06030B
:105090009873DAF800B002F00DFC0BEB06031876FB
:1050A00001360A2EC9D1E5E14FF0000AD6F800B06A
:1050B00002F000FC0BEB0A031871D6F800B002F006
:1050C000F9FB0BEB0A039873D6F800B002F0F2FB81
:1050D0000BEB0A030AF1010ABAF10A0F1876E5D1BF
:1050E000C8E102F0E7FB272820D86C4B00F11E0A2C
:1050F0001B6803EB8A0A02F0DDFB6C4B0AF1050624
:1051000003F58A72197A814203D00C339342F9D1A4
:105110000CE01B788AF8053002F0CCFB707002F0CE
:10512000C9FBB07002F0C6FBF070A3E101200021C2
:1051300002F0EEFB9EE102F0C7FB02F0C5FB544E0D
:10514000DFF858A1A6F8D00002F0BEFBA6F8D20006
:1051500002F0BAFBDAF800B0A6F8D40002F0B4FB13
:10516000ABF8B00102F0B0FB02F0B8FBDAF800A037
:1051700002F0AAFB00EB80004000AAF85A0002F0FF
:1051800099FB86F8040102F095FB86F8060102F00F
:1051900091FB86F8050102F08DFB6BE102F094FBB8
:1051A000434B98530236102EF8D163E10026DFF806
:1051B000ECA0DAF80020009202F086FB009A06F1DB
:1051C0002D034FEAC30B5A44D080DAF80020009236
:1051D00002F07AFB009A5A44108102F075FB07280E
:1051E00004D8DAF8002002EB0B035873A0F57A73A9
:1051F0009BB2B3F57A7F05D8DAF8003003EBC6032B
:10520000A3F87201DAF800A002F054FB0AEBC6031F
:105210000136082E83F87401C9D12BE100261F4BFB
:10522000D3F800A002F046FB0AEBC6030136082EB5
:1052300083F87501F3D11DE12B785E0700F11A8127
:1052400001F078FD03F068FF07F04EFC12E12B78C7
:10525000580700F10F81174B4FF4C8721A8009E10B
:105260002B78590700F10681134B1A7842F004029B
:105270001A70FFE02B785A07E4D536E102F01AFBEA
:105280000D4B1A78D0B142F0020219E066050020F9
:10529000101E0020F206002024020020D40300206B
:1052A000000020410000C84200007A44043F010889
:1052B00024120020580400206A02002022F002027A
:1052C0001A7002F0F7FA8D4B8D4E187002F006FB43
:1052D000306002F003FB706002F0F6FA894B188030
:1052E00002F0F2FA884B188094F8043143F002037C
:1052F00084F80431BEE002F0DDFA009002F0EEFA2C
:10530000019002F0EBFA824602F0E8FA064602F05B
:10531000DBFA02F0D9FA02F0CDFA9DE80C009AB956
:105320007A49C4F808310B88C4F80CA123F01003A3
:105330000B80774B1A7842F001021A70002E00F0B1
:105340009980744B1E6095E0102A40F09380C4F859
:105350001031C4F814A10EB16E4B1E606E480223CA
:10536000011D84F8183101F099FE83E0002002F05D
:10537000EDFA0023BB6002F0B1FABB681843B860D5
:1053800078E0002002F0E2FA02F09EFA634EA6F8FE
:10539000080102F099FAA6F80A016BE0002002F079
:1053A000D5FA02F087FA5D4B587163E0002002F0F5
:1053B000CDFA02F07FFA87F8160102F085FAA7F815
:1053C0001C0102F081FAA7F8180102F07DFAA7F893
:1053D0001A014FE0002002F0B9FA02F06BFA87F8E8
:1053E0001E0147E002F066FA4C4B33440136082EAA
:1053F00083F80E01F6D13DE0002002F0A7FA474EF7
:1054000006F1400A02F060FAA6F8D40102F052FA5E
:1054100086F8D60102F04EFA043686F8D3015645D6
:10542000F0D127E002F050FA00F03F00A6F8560154
:1054300002F04AFAB6F85621800100F4F8631343EB
:10544000A6F8563102F036FA000186F8540102F04F
:1054500031FA96F8543100F00F00184386F85401E1
:1054600004365645DED105E0002002F06FFA012334
:1054700084F81931002002F069FAD9F800309879DF
:1054800002F035FAD9F80030002283F848203AE4D7
:1054900094F8193113B1224A224BDA60224B08F1F9
:1054A0004C0898457FF422AC204E33689B0616D5F5
:1054B0001F4BD4F81C211B689A1A002A0FDB0F4AD5
:1054C0001278042A0BD91B4A03F5123303F5F8733B
:1054D000C2F81C31184BDA6882F01002DA60174B00
:1054E0009B683BB11648984704E00120002102F078
:1054F0000FFAC2E705B0BDE8F08F00BFB00500208D
:10550000B4050020AE050020AC0500203C020020C0
:105510006A0200204002002048120020101E0020D5
:105520000400FA0500ED00E0201200203402002003
:105530009C25002038110020000C0140D8030020D9
:1055400058120020AFF300802DE9F04F064689B0D5
:105550000F4615469B462978002900F0B88025297A
:1055600002D001353046B0E06C78302C03D00235E3
:105570004FF0000903E0AC784FF001090335A4F1C6
:105580003003092B4FF000081AD8A4F13003DAB227
:10559000092A07D80A2B13DC0A2202FB083815F85F
:1055A000014BF2E7A4F16103052B02D8A4F15703E4
:1055B000F0E7A4F14103052B02D8A4F13703E9E792
:1055C0006C2C03BF2C78012201350022632C66D09D
:1055D00006D8252C77D0582C3FD0002C77D0BAE7AE
:1055E000732C63D002D8642C11D0B4E7752C02D090
:1055F000782C32D0AFE70BF1040A05ACDBF80000E1
:105600000A2112B10022234613E0234620E00BF1C9
:10561000040A05ACDBF8000072B1002806DA2D237D
:105620008DF8143040420DF1150300E023460A21A5
:105630000022FDF7F3F90DE0002806DA2D238DF89E
:10564000143040420DF1150300E023460A210022E8
:10565000FDF7BCF9D34600941AE00BF10403039361
:105660000DF1140ADBF80000102132B1583C6242FF
:1056700062415346FDF7D2F906E0B4F158035A42AD
:105680005A415346FDF7A2F9DDF80CB0CDF800A061
:105690003046394642464B46FDF7FCF95BE730465B
:1056A0009BF800100BF10404B8470AE0DBF8003067
:1056B000304600933946424600230BF10404FDF7BF
:1056C000E9F9A34647E730462146B84743E709B022
:1056D000BDE8F08F0FB407B50A4904AB08680A4962
:1056E00053F8042B09680193FFF72EFF074B186846
:1056F00002F0B3FB0028F9D003B05DF804EB04B06E
:10570000704700BF34070020300700200813002036
:10571000F8B507460BF03AFC044638B9194B1A485D
:105720005A791A4B013A53F8221028E038461849A2
:1057300022460BF033FC60B9164802F06DF9164CA6
:1057400054F8041F19B11548FFF7C4FFF8E71448CF
:1057500005E000250D4B53F8256026B91148BDE83A
:10576000F84002F059B93846314622460BF016FC93
:1057700001350028EED1034B0B485D713146BDE881
:10578000F840A7E7101E00205953010830450108D2
:10579000335B01086D5301082C4501088053010853
:1057A00015570108845301089953010870B5044640
:1057B0000BF0ECFB08B91E482EE020461D490BF00B
:1057C000B9FC00242646254678B12CB1012C06D11F
:1057D0000BF08AFC064602E00BF086FC05461549F4
:1057E000002001340BF0A6FCEEE70B2D04D9BDE838
:1057F000704011480C216DE7012C07DC0F4B294646
:1058000033F915200E48BDE8704063E7A6F57A73BA
:10581000B3F57A7F03D90B48BDE870405AE70A48D0
:1058200029463246FFF756FF044B23F8156070BD3A
:10583000AB5301080E560108E5530108241200205D
:105840000B54010823540108455401082DE9F7437E
:1058500004460BF09BFBC0B290B9304C054694F85F
:10586000D711B4F8D42194F8D6312D4800912946A7
:105870000135FFF72FFF102D04F10404EFD14AE0AA
:1058800020460BF031FC0F28054636DC204620214F
:105890000BF06FFB234FEDB2D7F80090441CAD0026
:1058A000002620460BF020FC5FFA86F8B8F1010FC5
:1058B00083B208D0B8F1020F0BD0B3F5B47F1ED27B
:1058C0003A6853530AE0FF2B19D83B682B44987071
:1058D00004E0FF2B13D83B682B44D87020462C21C2
:1058E0000BF047FB044608B1441C02E0B8F1020F7C
:1058F00005D10136032ED4D10DE00B4806E009EBAB
:105900000500002104220BF000FB0848102103B021
:10591000BDE8F043DEE603B0BDE8F083101E0020D2
:105920005E5401084C0B0020725401089654010883
:10593000F0B500231946CEB200220C2505FB02F774
:105940000D48D4B23F5CB74203D00132042AF4D1EF
:105950000BE0FF2C09D0094A05FB04001A4492F819
:105960002C21074C0133A25C02720131052901D0C0
:10597000032BE0D9F0BD00BF54000020101E002012
:105980005053010810B54F2002F070F80E4C84F807
:105990002C01202002F06AF884F82D01002002F08A
:1059A00065F84FF4E133C4F83031C4F83431C4F849
:1059B0003831C4F83C31522384F82E0184F82F0189
:1059C00084F8403110BD00BF101E002070B50546A0
:1059D000441E14F8011F61B1064E30460BF0C9FA9F
:1059E0000028F6D0861B0448631B304480F80E3133
:1059F000EFE770BDFF5D0108101E00207FB5044673
:105A00000BF0C4FA082824D100231F49E25C09687E
:105A10001144497801F00301022908BF203AE254F9
:105A20000133082BF1D10025665D184831460BF093
:105A3000A0FA28B10135601931460BF09AFA18B175
:105A4000134801F0E9FF1CE0082DEDD12046FFF7D7
:105A5000BDFF104801F0E0FF00230F4A04A91A44DB
:105A600092F80E210A440949595C0133082B02F8C7
:105A70000C1CF2D10023094801A98DF80C30FFF766
:105A800029FE04B070BD00BFC4000020FF5D010806
:105A9000A4540108C4540108101E0020E656010851
:105AA00030B587B005460C4603A800210C220BF048
:105AB0002CFA2846002108F061FB20B128462A492B
:105AC00008F098F803E02846274908F091F827499C
:105AD00008F098F908F05CFB054685EAE570A0EB54
